:020000040800F2
:1000000000000220AD870008D1430008D343000858
:10001000D5430008D7430008D9430008000000007A
:10002000000000000000000000000000DB430008AA
:10003000DD43000800000000DF430008E143000842
:10004000FD870008FD870008FD870008FD87000880
:10005000FD870008FD870008E9430008FD870008C8
:10006000FD870008FD430008FD870008FD870008A4
:10007000FD870008FD870008FD870008FD87000850
:10008000FD870008FD870008FD870008FD87000840
:100090000D440008FD870008FD870008FD87000863
:1000A000FD8700081D440008FD870008FD87000843
:1000B000FD870008FD87000835440008FD8700081B
:1000C000FD870008FD870008FD870008FD87000800
:1000D000FD870008ED4A0008FD870008FD8700083D
:1000E000FD870008FD870008FD870008FD870008E0
:1000F00045440008FD870008FD870008FD870008CB
:10010000FD870008FD870008FD870008FD870008BF
:10011000FD870008FD870008FD870008FD870008AF
:10012000FD870008FD87000859440008FD87000886
:10013000FD870008FD870008FD870008FD8700088F
:10014000FD870008FD870008FD870008FD8700087F
:10015000FD870008694400087944000889440008C4
:10016000FD870008FD870008FD870008FD8700085F
:10017000FD870008FD870008FD87000800000000DB
:08018000FD870008FD8700085F
:1001900010B5054C237833B9044B13B10448AFF3C1
:1001A00000800123237010BD240200200000000005
:1001B000CC05010808B5034B1BB103490348AFF355
:1001C000008008BD0000000028020020CC050108C6
:1001D00001F0FF01102A2BDB10F0070F08D010F8F8
:1001E000013B013A8B422DD010F0070F42B3F6D1FC
:1001F000F0B441EA012141EA014122F007047FF015
:1002000000070023F0E80256083C85EA010586EA6B
:10021000010685FA47F5A3FA87F586FA47F6A5FAA7
:1002200087F68EB9EED1F0BC01F0FF0102F00702B3
:1002300032B110F8013B013A83EA010313B1F8D15E
:100240000020704701387047002D06BF354603383F
:10025000073815F0010F07D1013015F4807F02BF78
:10026000013015F4C03F0130F0BC0138704700BFC9
:10027000034613F8012B002AFBD1181A01387047E6
:1002800081F0004102E000BF83F0004330B54FEA47
:1002900041044FEA430594EA050F08BF90EA020FB4
:1002A0001FBF54EA000C55EA020C7FEA645C7FEA47
:1002B000655C00F0E2804FEA5454D4EB5555B8BF6A
:1002C0006D420CDD2C4480EA020281EA030382EADB
:1002D000000083EA010180EA020281EA0303362D6D
:1002E00088BF30BD11F0004F4FEA01314FF4801C40
:1002F0004CEA113102D0404261EB410113F0004F52
:100300004FEA03334CEA133302D0524263EB430308
:1003100094EA050F00F0A780A4F10104D5F1200EA6
:100320000DDB02FA0EFC22FA05F2801841F1000101
:1003300003FA0EF2801843FA05F359410EE0A5F1D5
:1003400020050EF1200E012A03FA0EFC28BF4CF006
:10035000020C43FA05F3C01851EBE37101F00045BC
:1003600007D54FF0000EDCF1000C7EEB00006EEBC9
:100370000101B1F5801F1BD3B1F5001F0CD3490853
:100380005FEA30004FEA3C0C04F101044FEA4452AA
:1003900012F5800F80F09A80BCF1004F08BF5FEA31
:1003A000500C50F1000041EB045141EA050130BD11
:1003B0005FEA4C0C404141EB0101013C28BFB1F523
:1003C000801FE9D291F0000F04BF01460020B1FA6E
:1003D00081F308BF2033A3F10B03B3F120020CDA41
:1003E0000C3208DD02F1140CC2F10C0201FA0CF01F
:1003F00021FA02F10CE002F11402D8BFC2F1200C84
:1004000001FA02F120FA0CFCDCBF41EA0C01904039
:10041000E41AA2BF01EB0451294330BD6FEA040482
:100420001F3C1CDA0C340EDC04F11404C4F120026D
:1004300020FA04F001FA02F340EA030021FA04F37F
:1004400045EA030130BDC4F10C04C4F1200220FAD6
:1004500002F001FA04F340EA0300294630BD21FA14
:1004600004F0294630BD94F0000F83F4801306BFDA
:1004700081F480110134013D4EE77FEA645C18BFCE
:100480007FEA655C29D094EA050F08BF90EA020F65
:1004900005D054EA000C04BF1946104630BD91EA5D
:1004A000030F1EBF0021002030BD5FEA545C05D160
:1004B0004000494128BF41F0004130BD14F580049F
:1004C0003CBF01F5801130BD01F0004545F0FE4113
:1004D00041F470014FF0000030BD7FEA645C1ABF48
:1004E000194610467FEA655C1CBF0B46024650EA7F
:1004F000013406BF52EA033591EA030F41F40021AB
:1005000030BD00BF90F0000F04BF0021704730B530
:100510004FF4806404F132044FF000054FF0000105
:1005200050E700BF90F0000F04BF0021704730B5C6
:100530004FF4806404F1320410F0004548BF40429B
:100540004FF000013EE700BF42004FEAE2014FEAF0
:1005500031014FEA02701FBF12F07F4393F07F4FCB
:1005600081F06051704732F07F4208BF704793F0CE
:100570007F4F04BF41F40021704730B54FF46074E1
:1005800001F0004521F000411CE700BF50EA0102E4
:1005900008BF704730B54FF000050AE050EA01028D
:1005A00008BF704730B511F0004502D5404261EBFD
:1005B00041014FF4806404F132045FEA915C3FF43E
:1005C000D8AE4FF003025FEADC0C18BF03325FEADB
:1005D000DC0C18BF033202EBDC02C2F1200300FA8C
:1005E00003FC20FA02F001FA03FE40EA0E0021FAB1
:1005F00002F11444BDE600BF70B54FF0FF0C4CF49F
:10060000E06C1CEA11541DBF1CEA135594EA0C0F50
:1006100095EA0C0F00F0DEF82C4481EA030621EA8B
:100620004C5123EA4C5350EA013518BF52EA0335C6
:1006300041F4801143F4801338D0A0FB02CE4FF078
:100640000005E1FB02E506F00042E0FB03E54FF0A8
:100650000006E1FB03569CF0000F18BF4EF0010EA0
:10066000A4F1FF04B6F5007F64F5407404D25FEA9C
:100670004E0E6D4146EB060642EAC62141EA55514F
:100680004FEAC52040EA5E504FEACE2EB4F1FD0C91
:1006900088BFBCF5E06F1ED8BEF1004F08BF5FEA0F
:1006A000500E50F1000041EB045170BD06F00046C1
:1006B00046EA010140EA020081EA0301B4EB5C046E
:1006C000C2BFD4EB0C0541EA045170BD41F4801166
:1006D0004FF0000E013C00F3AB8014F1360FDEBF8B
:1006E000002001F0004170BDC4F10004203C35DA67
:1006F0000C341BDC04F11404C4F1200500FA05F3EA
:1007000020FA04F001FA05F240EA020001F000428A
:1007100021F0004110EBD37021FA04F642EB060100
:100720005EEA430E08BF20EAD37070BDC4F10C042A
:10073000C4F1200500FA04F320FA05F001FA04F2EE
:1007400040EA020001F0004110EBD37041F10001DA
:100750005EEA430E08BF20EAD37070BDC4F12005E5
:1007600000FA05F24EEA020E20FA04F301FA05F24D
:1007700043EA020321FA04F001F0004121FA04F2F5
:1007800020EA020000EBD3705EEA430E08BF20EAC5
:10079000D37070BD94F0000F0FD101F000464000FF
:1007A00041EB010111F4801F08BF013CF7D041EA81
:1007B000060195F0000F18BF704703F00046520085
:1007C00043EB030313F4801F08BF013DF7D043EA56
:1007D0000603704794EA0C0F0CEA135518BF95EA0C
:1007E0000C0F0CD050EA410618BF52EA4306D1D193
:1007F00081EA030101F000414FF0000070BD50EAB2
:10080000410606BF1046194652EA430619D094EA3B
:100810000C0F02D150EA013613D195EA0C0F05D125
:1008200052EA03361CBF104619460AD181EA030179
:1008300001F0004141F0FE4141F470014FF0000031
:1008400070BD41F0FE4141F4780170BD70B54FF0CC
:10085000FF0C4CF4E06C1CEA11541DBF1CEA13554C
:1008600094EA0C0F95EA0C0F00F0A7F8A4EB05042E
:1008700081EA030E52EA03354FEA013100F0888025
:100880004FEA03334FF0805545EA131343EA1263EE
:100890004FEA022245EA111545EA10654FEA0026A3
:1008A0000EF000419D4208BF964244F1FD0404F55C
:1008B000407402D25B084FEA3202B61A65EB0305B8
:1008C0005B084FEA32024FF480104FF4002CB6EB75
:1008D000020E75EB030E22BFB61A754640EA0C00F5
:1008E0005B084FEA3202B6EB020E75EB030E22BF35
:1008F000B61A754640EA5C005B084FEA3202B6EB76
:10090000020E75EB030E22BFB61A754640EA9C0034
:100910005B084FEA3202B6EB020E75EB030E22BF04
:10092000B61A754640EADC0055EA060E18D04FEAC2
:10093000051545EA16754FEA06164FEAC30343EA62
:1009400052734FEAC2025FEA1C1CC0D111F4801F2F
:100950000BD141EA00014FF000004FF0004CB6E728
:1009600011F4801F04BF01430020B4F1FD0C88BFC7
:10097000BCF5E06F3FF6AFAEB5EB030C04BFB6EBD2
:10098000020C5FEA500C50F1000041EB045170BDC5
:100990000EF0004E4EEA113114EB5C04C2BFD4EBF2
:1009A0000C0541EA045170BD41F480114FF0000E76
:1009B000013C90E645EA060E8DE60CEA135594EAF2
:1009C0000C0F08BF95EA0C0F3FF43BAF94EA0C0FF5
:1009D0000AD150EA01347FF434AF95EA0C0F7FF46A
:1009E00025AF104619462CE795EA0C0F06D152EABE
:1009F00003353FF4FDAE1046194622E750EA4106A2
:100A000018BF52EA43067FF4C5AE50EA41047FF4B2
:100A10000DAF52EA43057FF4EBAE12E74FF0FF3C17
:100A200006E000BF4FF0010C02E000BF4FF0010CE8
:100A30004DF804CD4FEA410C7FEA6C5C4FEA430C61
:100A400018BF7FEA6C5C1BD001B050EA410C0CBFB0
:100A500052EA430C91EA030F02BF90EA020F002012
:100A6000704710F1000F91EA030F58BF994208BF79
:100A700090422CBFD8176FEAE37040F00100704736
:100A80004FEA410C7FEA6C5C02D150EA013C07D18D
:100A90004FEA430C7FEA6C5CD6D152EA033CD3D0D8
:100AA0005DF8040B704700BF8446104662468C46D2
:100AB0001946634600E000BF01B5FFF7B7FF002805
:100AC00048BF10F1000F01BD4DF808EDFFF7F4FF2E
:100AD0000CBF012000205DF808FB00BF4DF808EDB9
:100AE000FFF7EAFF34BF012000205DF808FB00BFDC
:100AF0004DF808EDFFF7E0FF94BF012000205DF8FE
:100B000008FB00BF4DF808EDFFF7CEFF94BF0120B2
:100B100000205DF808FB00BF4DF808EDFFF7C4FFAB
:100B200034BF012000205DF808FB00BF4FEA410CF4
:100B30007FEA6C5C02D150EA013C0AD14FEA430CD7
:100B40007FEA6C5C02D152EA033C02D14FF0000014
:100B500070474FF0010070474FEA410212F5001252
:100B600015D211D56FF47873B3EB625212D94FEAF4
:100B7000C12343F0004343EA505311F0004F23FADE
:100B800002F018BF404270474FF00000704750EA33
:100B9000013005D111F0004008BF6FF000407047F0
:100BA0004FF00000704700BF4A0011D212F500124A
:100BB00011D20DD56FF47873B3EB62520ED44FEAB5
:100BC000C12343F0004343EA505323FA02F0704735
:100BD0004FF00000704750EA013002D14FF0FF3073
:100BE00070474FF0000070474FEA4102B2F1E04316
:100BF00024BFB3F5001CDCF1FE5C0DD901F0004C04
:100C00004FEAC0024CEA5070B2F1004F40EB830053
:100C100008BF20F00100704711F0804F21D113F17F
:100C20003872BCBF01F00040704741F480114FEAB8
:100C30005252C2F11802C2F1200C10FA0CF320FA41
:100C400002F018BF40F001004FEAC1234FEAD3235E
:100C500003FA0CFC40EA0C0023FA02F34FEA4303C8
:100C6000CCE77FEA625307D150EA01331EBF4FF051
:100C7000FE4040F44000704701F0004040F0FE406C
:100C800040F40000704700BF53B94AB9002908BFBB
:100C900000281CBF4FF0FF314FF0FF3000F0BEB90D
:100CA000ADF1080C6DE904CE00F03CF8DDF804E08D
:100CB000DDE9022304B0704738B500220023044662
:100CC0000D46FFF70BFF28B920462946BDE83840FE
:100CD00000F00AB8204605F1004100F005F8404256
:100CE00061EB410138BD00BFD0B50C4B0022064678
:100CF0000F46FFF781FCFFF757FF0446FFF702FCA2
:100D0000074B0022FFF778FC02460B463046394677
:100D1000FFF7BAFAFFF748FF2146D0BD0000F03DCB
:100D20000000F0412DE9F047089D0F4604468C462F
:100D3000002B48D18A42164661D9B2FA82F34BB1F0
:100D4000C3F1200201FA03FC20FA02F29E4042EABB
:100D50000C0C9C404FEA164EB7B2BCFBFEF1220CC5
:100D60000EFB11CC42EA0C4201FB07F0904209D97C
:100D7000B21801F1FF3C80F0EE80904240F2EB802F
:100D800002393244121AA4B2B2FBFEF00EFB10225A
:100D900044EA024400FB07F7A74209D9341900F1DD
:100DA000FF3280F0DA80A74240F2D7803444023824
:100DB00040EA0140E41B00211DB1DC400023C5E9ED
:100DC0000043BDE8F0878B4206D90DB1C5E90001AB
:100DD00000210846BDE8F087B3FA83F1002948D125
:100DE000BB4202D3824200F20781841A67EB0302FE
:100DF00001209446002DE4D0C5E9004CE1E7002A2B
:100E000000F09280B2FA82F3002B40F0A8808A1A98
:100E10004FEA164E1FFA86FC0121200CB2FBFEF7AA
:100E20000EFB172240EA02420CFB07F0904207D962
:100E3000B21807F1FF3802D2904200F2E280474632
:100E4000121AA4B2B2FBFEF00EFB102244EA0244D6
:100E50000CFB00FCA44507D9341900F1FF3202D283
:100E6000A44500F2CB801046A4EB0C0440EA0740F6
:100E7000A2E7C1F120068B4022FA06FC4CEA030CE3
:100E800007FA01F420FA06F3F7404FEA1C4923431E
:100E900000FA01F81FFA8CFEB7FBF9F01C0C09FBF5
:100EA000107744EA074400FB0EF7A74202FA01F26A
:100EB0000AD91CEB040400F1FF3A80F09B80A742A2
:100EC00040F2988002386444E41B9FB2B4FBF9F30B
:100ED00009FB134447EA044403FB0EFEA64509D967
:100EE0001CEB040403F1FF3780F08280A6457FD914
:100EF000023B644443EA0040A4EB0E04A0FB02E77B
:100F0000BC427346B94663D360D05DB1B8EB03020F
:100F100064EB090404FA06F622FA01F31E43CC40FE
:100F2000C5E9006400214CE76208480842EAC17143
:100F30000B0C43EA00438AB242EA0342B3FBF6F1E8
:100F4000E407B4463746B6461F23B0FBF6F0D21B83
:100F500041EA004161E7614614E7104628E7C3F122
:100F6000200120FA01F29E4027FA01F19F403A4306
:100F70004FEA164E1FFA86FCB1FBFEF70EFB171068
:100F8000110C41EA004107FB0CF8884504FA03F410
:100F90003AD9711807F1FF3001D288451FD8A1EB6B
:100FA0000801B1FBFEF808FB0CF70EFB181192B21A
:100FB00042EA0142BA422FD2B21808F1FF31C6D23A
:100FC000BA42C4D2A8F102013244C0E7F0459CD233
:100FD000BEEB020367EB0C070138B94695E7A6EBB9
:100FE00008084144B81EB1FBFEF808FB0CF7DCE72B
:100FF0003B467FE7504667E70846FBE63444023845
:1010000032E7023F32441BE7A1EB08013846B1FB4F
:10101000FEF808FB0CF7C8E7414698E7704700BFA9
:1010200010B50C4600F032FA204600F02FFA10BD41
:1010300010B50C4640F0800000F028FA552000F072
:1010400025FA207010BD38B50D46144640F08000DA
:1010500000F01CFA06E0552000F018FA05F8010B24
:10106000013CE4B2002CF6D138BD000070B500F0B0
:10107000E5F9802000F00AFA552000F007FA552023
:1010800000F004FA00F0E4F9962000F0AFF900F067
:10109000D5F9802000F0FAF9552000F0F7F9552035
:1010A00000F0F4F900F0D4F9962000F09FF900F078
:1010B000C5F9B6217E20FFF7B3FF00F0C9F9502033
:1010C00000F0B0F900F0BAF9802000F0DFF9552007
:1010D00000F0DCF9552000F0D9F900F0B9F99620BC
:1010E00000F084F900F0AAF9802000F0CFF9552033
:1010F00000F0CCF9552000F0C9F9044600F0A8F939
:10110000962000F073F91E2C32D10024052C2DD826
:1011100000F094F9174A04EB4403D1184E78D55CDB
:1011200031462846FFF77CFF00F092F9962000F048
:101130005DF900F083F945F0800000F0A7F9552033
:1011400000F0A4F9552000F0A1F9054600F080F95F
:10115000962000F04BF9AE4202D10134E4B2D5E75B
:1011600004EB4404034B2344987800E0002070BD56
:10117000FF20FCE72006010870B582B000248DF83E
:10118000074000F06FF90DF1070529462046FFF7EB
:101190004FFF00F071F9962000F028F900F062F995
:1011A00029462046FFF744FF00F066F9962000F03C
:1011B0001DF900F057F9B6211420FFF731FF00F0B8
:1011C0005BF9502000F02EF900F04CF9294620463A
:1011D000FFF72EFF00F050F9962000F007F900F01D
:1011E00041F929462046FFF723FF00F045F99620F4
:1011F00000F0FCF89DF807300F2B2ED1052C29D8D4
:1012000000F030F9164A04EB4403D1184D78D65C4F
:1012100029463046FFF704FF00F02EF9962000F033
:10122000E5F800F01FF90DF107013046FFF700FF68
:1012300000F022F9962000F0D9F89DF807309D4281
:1012400002D10134E4B2D9E704EB4404044B234453
:10125000987800E0002002B070BDFF20FBE700BFDF
:101260000C06010810B500F0BFF800F0BEF8FFF75B
:10127000FDFE0446FFF780FF2043C0B210BD000012
:101280002DE9F04182B006460C461546002700972E
:10129000019700F0D3F8922000F0F8F80622694692
:1012A0001220FFF7D0FE00F0D3F89DF801301B02AA
:1012B0001BB29DF80020134307EE903AF8EEE77A50
:1012C000474A92ED007A67EE877AC4ED007A9DF87E
:1012D00003301B021BB29DF802100B4307EE903A3D
:1012E00092ED007AF8EEE77A67EE877AC4ED017A3C
:1012F0009DF805301B021BB29DF80420134307EE36
:10130000903AF8EEE77A67EE877AC4ED027A00F059
:10131000A9F8082269463846FFF795FE00F0ACF8B8
:101320009DF800300F2B28D000F088F8A22000F0A4
:10133000ADF8022269462220FFF785FE00F088F80A
:101340009DF800209DF801305B0943EAC203B3F524
:10135000806F01DBA3F5006307EE903AF8EEE77AC1
:10136000B4EE007A67EE877AB3EE077A77EE877A83
:10137000C5ED007A02B0BDE8F0819DF803301B0294
:101380001BB29DF80220134307EE903AF8EEE77A7D
:10139000144A92ED007A67EE877AC6ED007A9DF8DE
:1013A00005301B021BB29DF804100B4307EE903A68
:1013B00092ED007AF8EEE77A67EE877AC6ED017A69
:1013C0009DF807301B021BB29DF80620134307EE61
:1013D000903AF8EEE77A67EE877AC6ED027AA3E7ED
:1013E00004000020000000207047704710B44FF048
:1013F000E0235C69A82202FB00FC9B69002104E059
:10140000E01A02441144614509D21A464FF0E02324
:101410009B699A42FAD0F3D9D21A1144F3E75DF8E6
:10142000044B704710B504E04FF47A70FFF7DEFF0D
:101430002046431E9CB20028F6D110BD08B50022FC
:101440001021024804F083FD08BD00BF00000240E7
:1014500008B501221021024804F079FD08BD00BF43
:101460000000024008B500220121024804F06FFD8F
:1014700008BD00BF0004024008B501221146024821
:1014800004F065FD08BD00BF0004024000B587B050
:101490008DF80F004FF47A73009301230DF11702BA
:1014A0000DF10F01034805F03EFF9DF8170007B04E
:1014B00000BD00BFE006002030B58BB001220892CD
:1014C00000230693079200930193029303930593DD
:1014D00004930E4C6946204603F0DCFD204603F0E1
:1014E00075FE0221204603F0C9FF0E2309930593E0
:1014F000074C6946204603F0CDFD204603F066FE0A
:101500000221204603F0BAFF0BB030BDD802002004
:10151000B002002000B58BB001AB03AA002103F09C
:10152000F8FE039BA3F20122062A2BD8013BDBB273
:10153000154A1370154903EB83004200881831F9EE
:1015400002C0A0F808C09DF804E09DF805C04CEA70
:101550000E2C21F802C09DF806C09DF8072042EA33
:101560000C2242809DF80820120212B29DF809C098
:1015700042EA0C0282809DF80A0003EB83035A00C2
:101580008B1898710BB000BD40020020640200204F
:1015900010B582B08E4694460F494FF400720A602F
:1015A00000228A60CA6008220A610C4A0412147080
:1015B00050704FEA2E20907082F803E04FEA2C2002
:1015C000107182F805C018129071D37101AB0448F4
:1015D00003F02AFE02B010BD4C020020440200209D
:1015E000D802002008B50D480D4B0360032343606B
:1015F00000238360C3604FF4102202614FF4001295
:101600004261037643768376C3760377437703F0AC
:101610009BFC00B908BD02F069F8FBE7D802002086
:101620000064004008B50D480D4B03600323436080
:1016300000238360C3604FF4102202614FF4001254
:101640004261037643768376C3760377437703F06C
:101650007BFC00B908BD02F049F8FBE7B0020020AE
:101660000068004010B58AB00023059306930793E5
:10167000089309930368394A934204D0384A934245
:1016800034D00AB010BD374A136801331360012B00
:101690001FD000240194344B1A6B42F008021A63E5
:1016A0001B6B03F008030193019B032305930222A4
:1016B000069208930923099305A92C4804F04AFBD4
:1016C00022462146142004F009FF142004F016FFDE
:1016D000D7E700230093244B1A6C42F000721A647F
:1016E0001B6C03F000730093009BD2E7002302936E
:1016F0001D4B1A6C42F080621A641B6C03F080630D
:101700000293029B174A136801331360012B18D010
:1017100000230493144B1A6B42F002021A631B6BF2
:1017200003F002030493049B6023059302230693B2
:10173000032308930923099305A90D4804F00AFB24
:101740009FE700230393084B1A6C42F000721A645F
:101750001B6C03F000730393039BD9E70064004004
:1017600000680040AC02002000380240000C02403B
:101770000004024010B582B000240194114B1A6B92
:1017800042F480021A631B6B03F480030193019BF4
:10179000224621463A2004F0A1FE3A2004F0AEFE93
:1017A00022462146452004F099FE452004F0A6FE7D
:1017B00022462146462004F091FE462004F09EFE7B
:1017C00002B010BD0038024090B08DED070ACDED9B
:1017D000080A8DED091ACDED041A8DED052ACDED1F
:1017E000062A60EEA27A21EE027A77EEC77ACDED74
:1017F0000A7A21EE211A62EE802A31EE621A8DED0C
:101800000B1A22EE002A60EEA10A32EE602A8DED5C
:101810000C2A0AAB93E8070010AB03E907009DED23
:101820000D0ADDED0E0A9DED0F1A10B0704790B055
:101830008DED030ACDED040A8DED051ACDED001AEC
:101840008DED012ACDED022A60EE211ACDED071AA9
:1018500060EE820ACDED080A21EE221A8DED091AFA
:101860000DAB07AA07CA83E807000DF1280C8CE826
:10187000070031EEA00A30EE010A10B070478EB0BA
:101880008DED010ACDED020A8DED031A20EE000A5E
:101890008DED050A60EEA00ACDED060A21EE011AD3
:1018A0008DED071A0BAB05AA07CA83E807000DF1F7
:1018B000200C8CE8070030EE200A30EE010A0EB052
:1018C0007047000000B52DED048B93B0B0EE409A48
:1018D000F0EE608AB0EE418A8DED050ACDED060A84
:1018E0008DED071AFFF7CBFF194B10EE102AA3EB73
:1018F000620307EE103ADFED177A60EE277A67EEA3
:10190000277A67EE277ADFED146A76EEE77A67EEDC
:10191000277A29EE279A8DED099A68EEA78ACDEDF0
:101920000A8A28EE278A8DED0B8A0FAB09AA07CA0F
:1019300083E807000DF1300C8CE807009DED0C0AE0
:10194000DDED0D0A9DED0E1A13B0BDEC048B00BD4C
:1019500012141F5F12D3363FFF51D83F94B08DED64
:10196000080ACDED090A8DED0A1ACDED0B1A8DEDA1
:10197000052ACDED062A8DED073A60EEC27A21EEFA
:10198000227A77EEC77A21EE837A77EEC77ACDEDA9
:101990000C7A62EE007A21EE037A77EE877A22EEF5
:1019A000A17A77EEC77ACDED0D7A62EE807A20EEDD
:1019B000837A77EEC77A62EE211A77EEA17ACDEDBF
:1019C0000E7A23EE003A60EEA20A33EE203A22EEBF
:1019D000012A33EE423A8DED0F3A0CAB0FCB0DF1ED
:1019E000500C0CE90F009DED100ADDED110A9DED84
:1019F000121ADDED131A14B07047000090B08DED8F
:101A0000040ACDED050A8DED061ACDED071A60EE3C
:101A1000007A20EEA07A77EE877A21EE017A77EECF
:101A2000877A21EEA17A77EE877A1A4B17EE902A01
:101A3000A3EB620307EE103ADFED176A67EEA67AB2
:101A400067EE277A67EE277ADFED146A76EEE77A9B
:101A500067EE277A20EE270A8DED080A60EEA70AC6
:101A6000CDED090A21EE271A8DED0A1A61EEA71AAB
:101A7000CDED0B1A08AB0FCB0DF1400C0CE90F00AC
:101A80009DED0C0ADDED0D0A9DED0E1ADDED0F1A30
:101A900010B0704712141F5F12D3363FFF51D83F6A
:101AA0008AB00378012B2ED9022B5ED1D0ED066AC5
:101AB000D0ED087A66EEA75A90ED076A90ED097AA4
:101AC00026EE075A75EEC55ACDED045A67EE877AB1
:101AD00026EE866A77EE867AF1EE677ACDED057AA4
:101AE00066EEA66AF6EE007A77EEE67A27EE077AD9
:101AF00077EEC77ACDED067A04AB93E807000AAB20
:101B000003E9070029E090ED076A90ED097A66EE97
:101B1000075AD0ED067AD0ED086A27EEA65A75EE80
:101B2000C55ACDED045A67EE266A26EE276A76EE90
:101B3000866ACDED056A67EEA77AF6EE006A77EE63
:101B4000E67A27EE077A77EE877ACDED067A04AB50
:101B500093E807000AAB03E907009DED070ADDEDF6
:101B6000080A9DED091A0AB07047002307930893ED
:101B70000993F2E78AB00378012B36D0022B61D0AB
:101B8000002B40F08C80D0ED076AD0ED087A26EE6D
:101B9000A77A90ED066AD0ED095A26EE255A37EE5F
:101BA000057A8DED047A26EE067AB6EE005A37EE07
:101BB000457A27EEA75A37EE057A8DED057A67EE5E
:101BC000A57A66EE866A77EEE67ACDED067A04AB04
:101BD00093E807000AAB03E907009DED070ADDED76
:101BE000080A9DED091A0AB0704790ED067A67EE73
:101BF000077AF6EE006A76EEE76AD0ED077A27EE0E
:101C0000A76A76EEC66ACDED046AD0ED095A67EE92
:101C1000256A90ED086A27EE865A76EEC56ACDED04
:101C2000056A67EEA57A27EE067A77EE877AF1EEF7
:101C3000677ACDED067A04AB93E807000AAB03E9B7
:101C40000700CAE7D0ED077A90ED087A67EE876A59
:101C500090ED066AD0ED095A26EE255A76EE856A91
:101C6000F1EE666ACDED046A26EE065AF6EE006ADB
:101C700076EEC56A27EE075A76EEC56ACDED056A9F
:101C800067EE867A27EE257A77EEC77ACDED067A6B
:101C900004AB93E807000AAB03E907009DE70023C4
:101CA00007930893099398E700B591B08DED070A63
:101CB000CDED080A8DED091ACDED041A8DED052A3A
:101CC000CDED062AFFF7B3FDB5EEC00AF1EE10FA2E
:101CD0001BD4DDED041A9DED052ADDED062A9DEDF0
:101CE000070ADDED080A9DED091AFFF76DFD8DED80
:101CF0000A0ACDED0B0A8DED0C1A9DED0A0ADDEDF9
:101D00000B0A9DED0C1A11B000BDDDED041A9DED1E
:101D1000052ADDED062A9DED070ADDED080A9DED99
:101D2000091AFFF751FD8DED0D0ACDED0E0A8DED6F
:101D30000F1AFFF7C7FD8DED0A0ACDED0B0A8DEDE9
:101D40000C1ADAE74FF07E5383610023C36103620C
:101D500043628362C3620363012280F834200A4A2B
:101D60008263002280F8402043648364C364036577
:101D70004365836580F85C2002664369436680F8AA
:101D80006820C266036770470000204138B52DED1A
:101D9000028B04460D460B78037091ED018A80EDAD
:101DA000018AD1ED027AF5EE407AF1EE10FA3DD0DB
:101DB0009FED2F7A67EE877AC4ED027AD5ED037A2C
:101DC000F5EE407AF1EE10FA33D19FED2A0A84ED58
:101DD000030AD5ED047AF5EE407AF1EE10FA37D128
:101DE0009FED240A84ED040A6B69636163662367CF
:101DF000D5ED017AF5EE407AF1EE10FA01D06B697B
:101E000013B91D4BE360236194F834300BB984EDB2
:101E10000E8AF2EE047A77EEC87AF0EE086A87EE60
:101E2000A67A84ED0F7ABDEC028B38BDDFED117A16
:101E3000C2E79FED120A27EE800A0BF0E1FDF0EEFB
:101E4000000AF6EE007A20EE270A0BF023FDBEE72B
:101E50009FED0A0A27EE800A0BF0D2FDF0EE000A91
:101E6000F6EE007A20EE270A0BF014FDBAE700BF69
:101E700048E17A3FFFFF7F7FFFFF7F7F35FA8E3C8F
:101E800030B587B00546EC46084C0FCCACE80F00E7
:101E900094E803008CE8030069462846FFF776FFC4
:101EA0002846FFF74FFF07B030BD00BFE805010827
:101EB00070B52DED068BCEB00446B0EE408A04AB73
:101EC000F0EE648A8DED070ACDED080A8DED091A52
:101ED000CDED041A8DED052ACDED062A8DED013AE2
:101EE000CDED023A8DED034A00F1280593E8070095
:101EF00085E80700B0EEC07AD4ED027AB4EEE77A56
:101F0000F1EE10FA0DDCB0EEE07AF4EEC77AF1EE05
:101F100010FA06D4B0EEC17AF4EEC77AF1EE10FAF8
:101F200010D50EAE04F1180595E80F0086E80F00F5
:101F30002046FFF707FF96E80F0085E80F00012312
:101F400084F8403094F83430E3B1D4ED0E7A94ED57
:101F50000F7A27EE287A77EEC77AC4ED0E7A94EDE1
:101F6000017AF4EEC77AF1EE10FA04D4B5EE407AB5
:101F7000F1EE10FA06D184ED0E7A002384F83430A5
:101F800084F840302046FFF78BFD8DED1E0ACDED25
:101F90001F0A8DED201A00231B931C931D93012310
:101FA00084F85C3004ABDDED047AF5EE407AF1EEB6
:101FB00010FA0DD1D3ED017AF5EE407AF1EE10FA78
:101FC00006D1D3ED027AF5EE407AF1EE10FA48D060
:101FD0009DED040ADDED050A9DED061AFFF772FC82
:101FE0008DED210ACDED220A8DED231ADDED1E1AAD
:101FF0009DED1F2ADDED202AFFF756FE84ED110A24
:10200000C4ED120A84ED131A94F834304BB9FFF77B
:1020100036FCD4ED037AF4EEC07AF1EE10FAC0F299
:102020007581002384F85C30236E093B2366236EA0
:10203000626E934240F36E810022626684F85C20F7
:102040006269002BC0F26981934200DC1A46226665
:1020500094F85C302BB91BAB04F1440207CA83E847
:1020600007000023189319931A93012384F868300A
:1020700001ABDDED017AF5EE407AF1EE10FA0DD10B
:10208000D3ED017AF5EE407AF1EE10FA06D1D3EDF8
:10209000027AF5EE407AF1EE10FA65D02046FFF7AD
:1020A00069FDB0EE40AAF0EE609AB0EE419A8DED77
:1020B0000E0ACDED0F0A8DED101ADDED011A9DED22
:1020C000022ADDED032A9DED1E0ADDED1F0A9DEDBE
:1020D000201AFFF779FB8DED240ACDED250A8DED51
:1020E000261AFFF7EFFB8DED270ACDED280A8DEDBF
:1020F000291AF0EE4A1AB0EE692AF0EE492AFFF7E3
:10210000D3FD84ED140AC4ED150A84ED161A94F873
:1021100034304BB9FFF7B3FBD4ED047AF4EEC07A58
:10212000F1EE10FAC0F2FB80002384F86830E36E11
:10213000093BE366E36E226F934240F3F480002292
:10214000226784F868206269002BC0F2EF80934216
:1021500000DC1A46E26694F868302BB918AB04F13B
:10216000500207CA83E80700DFED717A28EE278A5C
:102170000EAD85ED008A9DED086A26EE276A85ED95
:10218000016ADDED096A66EEA76AC5ED026A4BAB2E
:1021900095E8070083E8070015AE86E807009DED87
:1021A0001B0ADDED187A30EE270A85ED000ADDED19
:1021B0001C7A9DED197A77EE877AC5ED017ADDED0F
:1021C0001D5A9DED1A7A75EE875AC5ED025A48AB35
:1021D00095E8070083E807002AAE86E8070094ED3B
:1021E0000E7A27EE000A85ED000A67EE277AC5ED24
:1021F000017A27EE257A85ED027A45AB95E807004E
:1022000083E807002DAE86E8070030EE080A85ED6A
:10221000000A77EE867AC5ED017A37EE267A85EDEB
:10222000027A42AB95E8070083E8070012AE86E821
:10223000070028EE800A85ED000A68EEA77AC5ED52
:10224000017A68EE878AC5ED028A3FAB95E8070000
:1022500083E8070030AE86E807009DED302ADDED0B
:10226000312A9DED323A94ED060AD4ED070A94ED39
:10227000081AD4ED091AFFF771FB8DED330ACDED85
:10228000340A8DED351ACDED361A0DF1280E04F114
:10229000180C9CE80F008EE80F00DEED007A77EE58
:1022A000807AC5ED007ADEED017A77EEA07AC5ED91
:1022B000017ADEED027A77EE817AC5ED027ADEED03
:1022C000037A77EEA17AC5ED037A0DF1EC0E95E86D
:1022D0000F008EE80F0037AD85E80F008CE80F0087
:1022E00094ED060AD4ED070A94ED081AD4ED091A04
:1022F000FFF784FB84ED060AC4ED070A84ED081A93
:10230000C4ED091A4EB0BDEC068B70BD236E0133CF
:1023100023668CE66269626692E6002297E6E36EC7
:102320000133E36606E7626922670CE7002211E7E2
:1023300035FA0E3C88B018300FC80DF1200C0CE9AE
:102340000F009DED040ADDED050A9DED061ADDED99
:10235000071A08B0704796B0D0ED075A90ED096A99
:1023600065EE866AD0ED067A90ED087A27EE875AF8
:1023700076EEC56A76EEA66ACDED0A6A26EE077A93
:1023800065EEA75A37EE257A37EE077A8DED0B7A90
:1023900067EEA77AF6EE005A77EEE57A26EE066A41
:1023A00077EE867A77EEA77ACDED0C7A0378012B5B
:1023B00022D9022B48D104AB283007C883E8070094
:1023C0009DED046A76EE866ACDED076ADDED056A5D
:1023D00037EE267A8DED087A9DED067A77EE877ACC
:1023E000CDED097A13AB07AA07CA83E807000DF100
:1023F000340C8CE807001FE004AB283007C883E8E2
:1024000007009DED046A76EE666ACDED076ADDEDA4
:10241000056A36EEC77A8DED087A9DED067A77EE7D
:10242000677ACDED097A10AB07AA07CA83E80700DF
:102430000DF1340C8CE807009DED0D0ADDED0E0A60
:102440009DED0F1A16B0704700230D930E930F9356
:10245000F2E7000007EE901AB8EE677AF7EE006A2E
:10246000C6EE877A9FED077A67EE877AC0ED007A2D
:1024700001EB81014160002383600023C36003619D
:1024800043617047FDAD003E10B5A0B003468DED31
:10249000050ACDED060A8DED071A0DF1200C00F1AD
:1024A0000C0207CA8CE80700DDED087A30EE670AF7
:1024B0008DED0B0ADDED097A70EEE70ACDED0C0A21
:1024C000DDED0A7A31EE671A8DED0D1A0DF1500C23
:1024D0000BAA07CA8CE807000DF1140E8EE807005E
:1024E000B0EEC07AF0EE087AB4EEE77AF1EE10FAC8
:1024F00058DCF0EEE07AB0EE087AF4EEC77AF1EE4E
:1025000010FA4FDCF0EEC17AF4EEC77AF1EE10FA71
:1025100048DC9A6859688A4253D31A460C33D2ED84
:10252000007A27EE800A8DED0B0A67EEA00ACDED4A
:102530000C0A67EE817ACDED0D7A0DF1740E0DF176
:102540002C0C9CE807008EE8070011AC84E807001B
:102550000DF1200E93E807008EE807009DED087A44
:1025600037EE007A8DED0B7A9DED097A37EE207A01
:102570008DED0C7A9DED0A7A77EE277ACDED0D7A06
:102580000DF1680E9CE807008EE807000DF15C0C69
:102590008CE8070083E807000EAB05AA07CA83E8AA
:1025A000070006E000229A600EAB05AA07CA83E87E
:1025B00007009DED0E0ADDED0F0A9DED101A20B00B
:1025C00010BD01329A600EAB05AA07CA83E8070066
:1025D000EFE700002DE9F0438DB007AD002407942C
:1025E000089409940A940B940094534B1A6B42F08C
:1025F00002021A631A6B02F002020092009A01941E
:102600001A6B42F040021A631A6B02F04002019208
:10261000019A02941A6B42F001021A631A6B02F0DB
:1026200001020292029A03941A6B42F008021A63A2
:102630001A6B02F008020392039A04941A6B42F098
:1026400004021A631A6B02F004020492049A0594BD
:102650001A6B42F080021A631A6B02F08002059234
:10266000059A06941A6B42F020021A631B6B03F062
:1026700020030693069BDFF8C89022464021484677
:1026800003F065FCDFF8BC8022461021404603F0D1
:102690005EFC2A4F22464BF20101384603F057FCFC
:1026A000402307930126089609940A942946484630
:1026B00003F050FB082307934FF488130893099401
:1026C0002946484603F046FB07964FF40413089347
:1026D00009962946404603F03DFB102307930896D0
:1026E00009940A942946404603F034FB4BF2010357
:1026F0000793089609940A942946384603F02AFB62
:102700004FF480430793089409962946384603F00E
:1027100021FB22462146062003F0E0FE062003F0BE
:10272000EDFE22462146092003F0D8FE092003F0E1
:10273000E5FE0DB0BDE8F083003802400004024021
:10274000001802400000024008B50B480B4B036024
:102750000B4B436000238360C3604FF480420261EF
:1027600043618361C361036204F0D0F900B908BD1D
:1027700000F0BCFFFBE700BF00030020005C00404E
:10278000A08601002DE9F04389B000230393049350
:102790000593069307930268224B9A4202D009B030
:1027A000BDE8F083002500951F4C236B43F0040324
:1027B0002363236B03F004030093009B0195236BB9
:1027C00043F001032363236B03F001030193019B97
:1027D0004FF4007303934FF01209CDF810904FF0AF
:1027E0000308CDF818800427079703AE31460F4839
:1027F00003F0B0FA4FF480730393CDF81090059571
:10280000CDF8188007973146094803F0A3FA0295DE
:10281000236C43F400032364236C03F4000302934A
:10282000029BBCE7005C0040003802400008024008
:102830000000024084B08EB00DF1380C8CE80F001F
:102840008DED050ACDED060A8DED071ADDED0E7A48
:1028500067EE807A9DED0F7A27EE207A77EE877A01
:102860009DED107A27EE017A77EE877ACDED087A22
:10287000DDED117A60EE277A9DED127A20EE877AEF
:1028800077EE877A9DED137A21EE077A77EE877AD5
:10289000CDED097ADDED147A20EE270ADDED157A0B
:1028A00060EEA70A30EE200ADDED167A21EE271A37
:1028B00030EE010A8DED0A0A08AB93E807000CE937
:1028C00007009DED0B0ADDED0C0A9DED0D1A0EB013
:1028D00004B0704784B000B5A7B00DF1A00C8CE82F
:1028E0000F008DED110ACDED120A8DED131ACDED0D
:1028F0000E1A8DED0F2ACDED102A8DED0B3ACDED90
:102900000C3A8DED0D4A30EE430A8DED140A70EE4F
:10291000E30ACDED150A31EE441A8DED161A23ABFC
:102920000DF1500C9CE8070083E807000DF1680EDC
:102930008EE8070061EE801ACDED141A22EE202AEF
:102940008DED152A62EE812ACDED162A20AB9CE88A
:10295000070083E807000DF1740C8CE80700EC46D3
:102960000DF1B00EBEE80F00ACE80F00DEF800304D
:10297000CCF8003028AB0FCB9DED1D0ADDED1E0A13
:102980009DED1F1AFFF756FF8DED170ACDED180AC2
:102990008DED191A27B05DF804EB04B0704784B0D0
:1029A00000B59DB00DF1780C8CE80F008DED0D0A8F
:1029B000CDED0E0A8DED0F1ACDED0A1A8DED0B2A15
:1029C000CDED0C2A30EE610A8DED100A70EEC20AD0
:1029D000CDED110A31EE621A8DED121A19AB10AA63
:1029E00007CA83E807000DF1580C8CE80700EC4695
:1029F0000DF1880EBEE80F00ACE80F00DEF80030E5
:102A0000CCF800301EAB0FCB9DED160ADDED170A9A
:102A10009DED181AFFF70EFF8DED130ACDED140A88
:102A20008DED151A1DB05DF804EB04B07047000081
:102A30002DE9F0432DED068B93B07A4C7A4D7B4A0D
:102A400021462846FEF71CFC95ED000ADFED787A5A
:102A500020EE270AD5ED010A60EEA70A95ED021ACD
:102A600021EE271A734E86ED000AC6ED010A86EDA7
:102A7000021AD4ED006ACDED096A94ED017A8DED6C
:102A80000A7AD4ED027ACDED0B7A9FED6B6A66EE91
:102A9000866ACDED066A27EE067A8DED077A67EE37
:102AA000867ACDED087A0FAC06AB93E8070084E890
:102AB00007000CAB83E80700604C84E80700604B1C
:102AC000D3ED00AA93ED01AAD3ED029AF1EE699A33
:102AD0005C4DC5ED00AA85ED01AAC5ED029ADFF8AF
:102AE0008091DFF88081584FEC4607F1100EBEE868
:102AF0000F00ACE80F00DEF80030CCF8003097E8AB
:102B00000F0099ED003AD9ED013A99ED024AD8ED5E
:102B1000001A98ED012AD8ED022AFFF7DBFEB0EE8D
:102B2000409AF0EE608AB0EE418A86ED000AC6ED6A
:102B3000010A86ED021ADFF83091DFF83081434F49
:102B4000EC4607F1100EBEE80F00ACE80F00DEF80F
:102B50000030CCF8003097E80F0099ED003AD9ED3D
:102B6000013A99ED024AD8ED001A98ED012AD8ED04
:102B7000022A94ED000AD4ED010A94ED021AFFF73F
:102B8000A9FE84ED000AC4ED010A84ED021ADFF803
:102B9000E0802F4FEC4607F1100EBEE80F00ACE8C6
:102BA0000F00DEF80030CCF8003097E80F00D8EDC9
:102BB000001A98ED012AD8ED022AB0EE6A0AF0EE6A
:102BC0004A0AB0EE691AFFF7EAFE85ED000AC5ED84
:102BD000010A85ED021AB0EE490AF0EE680AB0EE7D
:102BE000481A1C48FFF750FC86ED000AC6ED010AA2
:102BF00086ED021A184BD3ED004A95ED003AD5ED5B
:102C0000013A95ED024AD4ED001A94ED012AD4ED73
:102C1000022A1248FFF74CF913B0BDEC068BBDE851
:102C2000F08300BF7C03002088030020780300208D
:102C3000E02E65426C0300201616D13D6003002093
:102C40002004002054030020B80601087C06010877
:102C5000400601089403002008000020AC03002077
:102C6000A0060108AC060108640601087006010808
:102C70003406010808B5024800F0B4F808BD00BFEA
:102C8000200400207047704700B587B0024600233B
:102C90008DF817300A230293012301930DF11701D8
:102CA00000911C21034804F0BFF89DF8170007B0FD
:102CB00000BD00BF0003002000B587B002468DF8BC
:102CC00017100A230293012301930DF117010091BC
:102CD0001C21024803F0F8FF07B000BD00030020EC
:102CE00000B585B00A2302930192009101230246A8
:102CF0001C21024804F098F805B000BD0003002034
:102D000008B503F065FC08BD10B44FF0E0235C6922
:102D100000EBC0004FEAC00C9B69002104E0E01A00
:102D200002441144614509D21A464FF0E0239B69E1
:102D30009A42FAD0F3D9D21A1144F3E75DF8044B62
:102D40007047000008B501224021024803F0FFF857
:102D500008BD00BF0018024008B50022402102480B
:102D600003F0F5F808BD00BF0018024070B5FFF78A
:102D700089FFFFF788FFFFF7EFFF3220FFF7C0FF63
:102D8000FFF7E0FF3220FFF7BBFF0020FFF77CFFDB
:102D9000102823D10024032C1ED8114A04EB44032D
:102DA000D118D55C4E7831462846FFF785FF96202E
:102DB000FFF7AAFF2846FFF767FF05469620FFF7B3
:102DC000A3FFAE4202D10134E4B2E4E704EB4404D1
:102DD000034B2344987800E0002070BD4020FCE7BE
:102DE000DC06010810B582B00446062269460320BD
:102DF000FFF776FF9DF801301B021BB29DF8002003
:102E0000134307EE903AF8EEE77A9FED137A67EEF8
:102E1000877AC4ED007A9DF803301B021BB29DF83F
:102E20000220134307EE903AF8EEE77A67EE877ACE
:102E3000C4ED017A9DF805301B021BB29DF80420F9
:102E4000134307EE903AF8EEE77A67EE877AC4ED1F
:102E5000027A02B010BD00BF9A99993E10B53E4B60
:102E60001B68092B16D03C4B1B680A2B18D03A4B19
:102E70001B680D2B1AD0384B1B68102B35D0374BE5
:102E80001B68FF2B25D0802B3CD0334B1B680E2BAF
:102E900045D010BD324B01221A6000F095F9E2E7EF
:102EA0002F4B00221A6000F0B3F9E0E72B4B1B68B0
:102EB000802BE0D12B4B1B687F2BDCD100242A4BCD
:102EC0001C6000F051F9294B01221A60284B1C604C
:102ED000D1E7284A1268FF2AD5D1224A1268FF2A70
:102EE000D1D1254A1268FF2ACDD100221C4B1A608D
:102EF00001231D490B601D490A601D4A136000F043
:102F00003FF9C2E71B4B1B68802BBED1154B1B68DA
:102F1000802BBAD1184B1B68802BB6D1E5E7002374
:102F20000F4A1360104A1360104A1360104A13606E
:102F3000002212490A6012490A6008E0114A682119
:102F400001FB032200219162116391630133032B82
:102F5000F4DD00F02BF99CE7CC060020D806002019
:102F600020000020D40600201005002014050020B9
:102F70000C050020DC060020D006002004050020FF
:102F80000005002020050020184B1B68052B0ED0E3
:102F9000072B1CD013B9164B00221A60154B1A6868
:102FA000154B03EB82031A68144B1A607047104AE2
:102FB0001268002AECD10F4A1268012A03DD0C4A7C
:102FC00001211160E4E701320A490A60F7E7084A83
:102FD0001268002ADED1074A1268002A02DD013A8F
:102FE00004490A60024A01211160D3E7CC0600209F
:102FF0002C040020340400200C00002030040020A9
:1030000008B501F02FF9FFF7BFFFFFF727FF4B4B84
:103010001B682BB94A4B1B68012B02D0012B46D0F1
:1030200008BD484A1268002AF8D1474A1268802A27
:103030002BDC464991ED007ADFED457A27EE277AC1
:10304000803A07EE902AF8EEE77A67EE877A414AEF
:10305000C2ED007A3F4A92ED007A3C4AD2ED007A06
:10306000B4EEE77AF1EE10FA02DD3A4AC2ED007AE8
:10307000F1EE677A374A92ED007AF4EEC77AF1EE14
:1030800010FACBDDC2ED007AC8E73049D1ED006A15
:10309000DFED317A86EEA77A803A07EE902AF8EED5
:1030A000E77A67EE877A2B4AC2ED007AD2E7254BA2
:1030B0001B68002BB4D1294B1B687F2B2BDC284AC3
:1030C000D2ED006ADFED247A86EEA77A7F3B07EE29
:1030D000903AF8EEE77A67EE877A224BC3ED007AF2
:1030E000204B93ED007A1E4BD3ED007AB4EEE77AD5
:1030F000F1EE10FA02DD1B4BC3ED007AF1EE677AB8
:10310000184B93ED007AF4EEC77AF1EE10FA87DDF2
:10311000C3ED007A84E7124A92ED007ADFED0C7A73
:1031200027EE277A7F3B07EE903AF8EEE77A67EED4
:10313000877A0C4BC3ED007AD2E700BF2000002055
:103140001405002010050020D806002030040020BF
:10315000000000BC040500200000FEC2D4060020D0
:103160001800002000050020044B1B6800225A6351
:103170004EF660219963DA63704700BF4C08002067
:10318000044B1B6800225A639A634EF66022DA638E
:10319000704700BF4C080020034B1B684EF66022AE
:1031A0005A639A63DA6370474C080020054B1B682A
:1031B0004DF650425A6342F2B8429A6348F2F072B6
:1031C000DA6370474C08002070B5104D2B684EF63E
:1031D00060265E6300249C63DC63642003F0F8F9DE
:1031E0002B685C639C63DC63642003F0F1F92B685B
:1031F0005E639C63DC63642003F0EAF92B685C6324
:103200009C63DC63642003F0E3F970BD4C0800208C
:1032100070B5104D2B6800245C639C634EF66026ED
:10322000DE63642003F0D4F92B685C639C63DC6389
:10323000642003F0CDF92B685C639C63DE6364203B
:1032400003F0C6F92B685C639C63DC63642003F0C5
:10325000BFF970BD4C08002070470000FFEE007AF7
:10326000B4EEE70AF1EE10FA0DD9F7EE007AB4EEFB
:10327000E70AF1EE10FA02DB9FED040A704708B589
:103280000AF0DAFA08BD9FED020A7047DB0FC93F6A
:10329000DB0FC9BF00B52DED068B8FB0B0EE409AA5
:1032A000F0EE609AB0EE418AF0EE618A8DED040A8C
:1032B000CDED050A8DED061ACDED071A61EE017A06
:1032C000B6EE00AA3AEE67AA20EE200A61EE217A55
:1032D00060EEA00A7AEE600A30EE270A0AF0D8FA09
:1032E000DFED19AA20EE2A0A8DED080A28EE090A58
:1032F00069EEA87A30EE670A30EE000AFFF7AEFFFB
:1033000020EE2A0A8DED090A29EE280A28EE298ADC
:1033100068EEA88A7AEE680A30EE080A0AF0B8FA6F
:1033200020EE2A0A8DED0A0A08AB93E807000EABDF
:1033300003E907009DED0B0ADDED0C0A9DED0D1A6A
:103340000FB0BDEC068B00BDE02E65420000000012
:103350002DE9F0412DED0A8BA8B003F033F9B64BFF
:103360001B68C31A07EE903AF8EE677A9FEDB37ABE
:1033700087EE87AAB5EEC0AAF1EE10FA06D9DFED06
:10338000B07AB4EEE7AAF1EE10FA08DDAD4BD3ED5A
:10339000007AF8EEE77A9FEDA97A87EE87AAA64B26
:1033A0001860A94C2046FEF7C5FF8DED240ACDED2F
:1033B000250A8DED261ACDED271AFFF76BFF8DED4F
:1033C000210ACDED220A8DED231A2046FEF7C3FF18
:1033D0008DED1E0ACDED1F0A8DED201A9B4AB2F924
:1033E0000230B2F90C100B4400EE103AB8EEC00AED
:1033F000F6EE007AB2F916305B42B2F920209B1A41
:1034000000EE903AF8EEE00A914C9249204660EEC8
:10341000A70A20EE270A00F0F3FB9FED8F9A9DED9F
:1034200022BA2BEE09BADDED219A69EE899ADDED1B
:10343000237A67EE897A17EE900AFDF785F841EC5A
:10344000180BB0EE480AF0EE680A0AF095FA51EC53
:10345000100BFDF7C9FB0AEE900AB0EE480AF0EE39
:10346000680A0AF009FB51EC100BFDF7BDFB08EEF2
:10347000100A1BEE100AFDF767F841EC1B0BB0EECB
:103480004B0AF0EE6B0A0AF077FA51EC100BFDF7DD
:10349000ABFB08EE900AB0EE4B0AF0EE6B0A0AF0B6
:1034A000EBFA51EC100BFDF79FFB0BEE900A19EEB7
:1034B000900AFDF749F841EC1C0BB0EE4C0AF0EE17
:1034C0006C0A0AF059FA51EC100BFDF78DFB0BEE6C
:1034D000100AB0EE4C0AF0EE6C0A0AF0CDFA51EC8C
:1034E000100BFDF781FB06EE900AD4ED009A29EE51
:1034F0008A7A6AEEAB7A67EEA67A28EE0B6A77EEE6
:10350000C67A67EE877A554B93ED006A77EE867A36
:10351000C3ED007A28EE2B8A28EE268A6AEE8BAA63
:1035200038EE2A8A28EE078A4D4B93ED006A38EE72
:10353000068A83ED008A68EEA68A68EE878A494B80
:1035400093ED007A78EE878AC3ED008A464B93EDBF
:1035500000AA2AEE09AAD3ED01AA6AEE89AA93ED80
:10356000027A27EE099A414B1E685F68D3F80880FB
:1035700017EE900AFCF7E8FF04460D464046FCF7BC
:10358000E3FFCDE91C013846FCF7DEFFCDE91A0167
:103590003046FCF7D9FFCDE9180119EE100AFCF707
:1035A000D3FFCDE916011AEE900AFCF7CDFFCDE965
:1035B00014011AEE100AFCF7C7FFCDE912019FEDC6
:1035C0001CAB8DED10AB19EE900AFCF7BDFFCDE9F9
:1035D0000E018DED0CAB2498FCF7B6FFCDE90A0186
:1035E0002798FCF7B1FFCDE908012698FCF7ACFF5E
:1035F000CDE906012598FCF7A7FFCDE9040118EEF7
:10360000900AFCF7A1FFCDE9020118EE100AFCF7C1
:103610009BFFCDE9000122462B46154801F068FCCE
:1036200028B0BDEC0A8BBDE8F08100BFAFF300808D
:1036300000000000000000003804002000007A4470
:10364000CDCCCC3D1C000020AC0300206402002047
:10365000740400207004002035FA8E3C6C040020B5
:1036600068040020640400206C0300205403002040
:10367000E8060108144B1B68012B00D0704710B5F9
:1036800082B004460346114A1321114805F01EFF7B
:1036900001AB6A460F49204605F070FF022807D0AB
:1036A00023460D4A13210D4805F010FF02B010BD4E
:1036B0000B4B009A1A600B4B019A1A6002F082FFC2
:1036C000094B1860F2E700BF200000201C0701082A
:1036D0003C040020200701083007010850040020A6
:1036E0000405002000050020FC04002072B6FEE75F
:1036F00010B594B008AC30220021204606F02CFF13
:103700000023039304930593069307930193204AA0
:10371000116C41F080511164126C02F080520192E0
:10372000019A02931B4B1A6842F480421A601B688C
:1037300003F480430293029B012308934FF48033E8
:10374000099302230E934FF480020F9206221092E7
:10375000A8221192129304231393204601F0D4FF60
:1037600090B90F23039302230493002305934FF48E
:10377000A05306934FF480530793052103A802F04A
:1037800013FA18B914B010BDFFF7B0FFFFF7AEFF82
:10379000003802400070004000B583B002F0ECFE3B
:1037A000FFF7A6FFFEF716FFFDF7E4FFFDF71AFF90
:1037B000FDF738FF01F00CFA00F06EFF00F0E0FFBB
:1037C00000F0A4FF01F0DEF801F058F9FEF7BCFFAD
:1037D00000F06CFD01F016FA01F03CFB01F0D2F9AB
:1037E0006421224800F0C0FE214B1978214800F0E6
:1037F000BBFE0521204800F0B7FE204BD3ED007A38
:103800009FED1F7A67EE877AFCEEE77ACDED017ABD
:103810009DF804101B4800F0A7FE0A211A4800F08A
:10382000A3FE1A4C40221A49204604F0A7FF226842
:10383000D36843F01003D36001E0FFF7E9FC154BB8
:103840001B68002BF9D100F0DBFE134B1B78002B1B
:10385000F5D0114B00221A70104C2046FFF70AFFDA
:1038600021460F4801F044FBE9E700BF5932000848
:103870001C00002051330008CD3A00080800002049
:1038800000007A44312A0008013000088C0A002028
:10389000BC04002038070020780400207C040020AD
:1038A0004407010870B584B000251BE068230F4C65
:1038B00003FB0544204600F0CFFAE66D9FED0C0AAD
:1038C000002202924FF47A7301930092F0EE401AB4
:1038D0009FED081AF2EE040A43F6982201212046D1
:1038E000B0470135032DE1DD04B070BD2005002097
:1038F000000000000000C84208B500231A4619461F
:103900001846FDF745FE002208E0064B682101FB42
:10391000023300219962196399630132032AF4DDAD
:1039200008BD00BF2005002008B52DED048B5A4BC3
:103930001B68012B16D0594B1B68012B20D01BB9DB
:10394000574A1268012A20D0002B40F09780544B30
:103950001B68002B40F09280002252490A605249B5
:103960000A6088E002F02EFE504B1B68C01AB0F5CA
:10397000FA7FE0D900234E4A13604E4A1360DAE71B
:10398000FFF70AFCFFF7B8FF7AE0494B93ED008A96
:1039900038EE088A474BD3ED009A474BD3ED007AB7
:1039A00069EEA79A78EE697A444BD3ED008A78EEF7
:1039B000A88AC7EEA87A17EE900AFCF7C5FD32A3D5
:1039C000D3E90023FCF718FE31A3D3E90023FCF769
:1039D00013FEFDF709F909EE100A324B186038EEB4
:1039E000298AC8EE287A17EE900AFCF7ADFD26A3C7
:1039F000D3E90023FCF700FE25A3D3E90023FCF75D
:103A0000FBFDFDF7F1F807EE900A274B18609FEDDC
:103A10002C7AB4EEC79AF1EE10FA02DD214B83ED59
:103A2000007A204BD3ED006A9FED267AF4EEC76A48
:103A3000F1EE10FA01D583ED007A9FED217AF4EED4
:103A4000C77AF1EE10FA02DD174B83ED007A164BC0
:103A500093ED007ADFED1B7AB4EEE77AF1EE10FA1F
:103A60000ED5C3ED007A0BE0174A682101FB032253
:103A7000002191620133032BF6DD01E0FFF73CFFEB
:103A8000BDEC048B08BD00BF9A9999999919234000
:103A9000333333333333334020000020100500200C
:103AA000140500201C05002018050020FC0400203F
:103AB000040500200005002028000020240000202C
:103AC00000409C4600409CC62005002010B5444B99
:103AD0001C6824B1424B1B68012B7ED010BDFFF740
:103AE00023FF404B1A68404B5A60DA663F4AD2EDDA
:103AF000007AF1EE677AC3ED357AC3ED4F7A11E0C3
:103B00003948682303FB0400416E04EB84035A0028
:103B1000374B1344B3F9023000EE103AB8EEC00A46
:103B200088470134032CEBDD324B1B681BB9324B49
:103B3000186800283CD0314B00221A702A4BD3ED74
:103B40000C7A93ED267AD3ED406A93ED5A6ABDEE76
:103B5000C66AFDEEE66ABDEEC77AFDEEE77A16EEBE
:103B6000103A1BB216EE902A12B217EE101A09B2D2
:103B700017EE900A00B2FDF70BFDABE7B3EE047A47
:103B8000F4EEC77AF1EE10FA15DC0133032B11DCE9
:103B900003EB83025100164A0A44B2F9022007EEF1
:103BA000902AF8EEE77A002AE8DAF1EE677AE5E79C
:103BB0000346EBE7012060B1104A13780133DBB212
:103BC0001370022BBAD9FFF797FE0C4B00221A7024
:103BD00084E70A4B00221A70B0E7FFF78DFE7DE7FD
:103BE0000C0500201C0500202005002018050020E1
:103BF00064020020140500201005002008050020A4
:103C0000B3EE037A80EE076ADFED126AC6EE267A1B
:103C100080EE876A86EE267ADFED0F6A67EEA67A77
:103C200027EE267AF6EE006A27EEA66A67EE266A87
:103C300076EE266AC0ED006AF1EE677A9FED076ABC
:103C4000C7EE866AC7EE067A76EEA77AC1ED007AED
:103C5000704700BFCDCC1841CDCCCC3D1F85EB3E8D
:103C600007EE902A07EE103A0170BDF8003006EE1C
:103C7000903AF8EE666AC0ED126A80ED110AB8EE6D
:103C8000477A80ED107AF8EE677AC0ED0F7ABDF9C9
:103C9000043007EE903AF8EEE77AC0ED137ABDF9FA
:103CA000083007EE903AF8EEE77AC0ED017AC0ED01
:103CB000030A80ED041AC0ED051A00230363704760
:103CC00080ED030AC0ED040A80ED051A704700007C
:103CD0002DE9F8432DED048B0446F0EE408A036D88
:103CE000436502F06FFC2065636DC01AC5B284F8AD
:103CF0005850C4ED068A94ED079A84ED089A94ED25
:103D0000018A38EE688A84ED078AB5EEC08AF1EE42
:103D100010FA40F38880F0EE487A94ED117AB4EE10
:103D2000E77AF1EE10FA78D5D4ED038A68EE288AA6
:103D3000C4ED098AA06AFCF707FC06460F46D4EDDD
:103D4000047A68EE277A17EE900AFCF7FDFB8046AE
:103D5000894694ED0E7AD4ED0C7A77EE677A17EEF9
:103D6000900AFCF7F1FB3AA3D3E90023FCF744FCEB
:103D700002460B4640464946FCF786FA804689468D
:103D80002846FCF7CFFB42464B46FCF735FC0022A9
:103D90002D4BFCF75BFD02460B4630463946FCF7DF
:103DA00075FAFCF721FF06EE900AA06294ED057A01
:103DB00038EE498A27EE087A07EE905AF8EEE77A4D
:103DC000DFED225A87EEA56AC7EE067AC4ED0B7ABC
:103DD00094ED107AF4EEC76AF1EE10FA01DD84ED8D
:103DE0000A7AD4ED0A6AB1EE477AF4EEC76AF1EEC8
:103DF00010FA01D584ED0A7A94ED0A7A78EE878A72
:103E000077EEA88AC4ED0E8AD4ED0F7AF4EEE78A35
:103E1000F1EE10FA0ADDC4ED0C7A94ED0C0ABDEC5B
:103E2000048BBDE8F883F1EE487A76E7F1EE677A25
:103E3000F4EEE78AF1EE10FA02D5C4ED0C7AECE765
:103E4000C4ED0C8AE9E700BF00408F4000007A44CF
:103E5000A2923A014D84FF3F034BC365034B0366B7
:103E6000034B4366704700BF613C0008C13C00083B
:103E7000D13C000830B583B005460123ADF80630CB
:103E8000274A00215170ADF806300DE000224FF4B2
:103E90000041244802F05BF815E0BDF806309BB203
:103EA0005B009BB2ADF80630BDF806309BB2FF2B2D
:103EB00031D8BDF806301D42E8D001224FF4004150
:103EC000184802F044F8174C01224FF400512046E4
:103ED00002F03DF80A2000F0A3FF00224FF4005149
:103EE000204602F034F80A2000F09AFF01224FF435
:103EF0000051204602F02BF84FF48041204602F09A
:103F00001FF80028C9D0BDF8062092B204494B78AA
:103F100013434B70C1E7102000F082FF03B030BDA7
:103F2000C00600200004024010B582B000228DF8C7
:103F300007200123ADF804304FF480512F4802F0E0
:103F400006F82F4C2078FFF795FF6078FFF792FF77
:103F500002238DF8073040E0BDF804309BB25B00CF
:103F60009BB2ADF80430BDF804309BB2FF2B2BD8C8
:103F7000224C01224FF40051204601F0E8FF0A20B4
:103F800000F04EFF00224FF40051204601F0DFFF09
:103F90000A2000F045FF01224FF40051204601F0B5
:103FA000D6FF4FF48041204601F0CAFF0028D3D04D
:103FB000BDF8042092B29DF807301249CB5C9DF801
:103FC000070013430B54C7E7102000F029FF9DF8AA
:103FD00007300133DBB28DF807309DF80730082B2E
:103FE00003D80123ADF80430BDE701224FF480511E
:103FF000024801F0ACFF02B010BD00BF0004024057
:104000004C000020C0060020014B185C704700BF28
:10401000C0060020002304E0034A0021D1540133EC
:10402000DBB2082BF8D97047C006002008B5FFF7AF
:10403000F1FFFFF779FF0D4B1A79D97841EA022198
:104040000B4B198000230F2B0ED80A4A32F813208D
:10405000013A41FA02F212F0010F02D00133DBB251
:10406000F1E70133D8B200E0002008BDC00600200F
:10407000CA0600202C00002010B5114C00224FF47D
:104080008051204601F063FF102000F0C9FE01209E
:10409000FFF7F0FE4220FFF7EDFE0020FFF7EAFEFB
:1040A0000020FFF7E7FE0020FFF7E4FE01224FF4B7
:1040B0008051204601F04BFF102000F0B1FE10BDF2
:1040C0000004024010B5174C00224FF480512046E6
:1040D00001F03DFF102000F0A3FE0120FFF7CAFE13
:1040E0004320FFF7C7FE0020FFF7C4FE0120FFF7C3
:1040F000C1FE0020FFF7BEFE0020FFF7BBFE002040
:10410000FFF7B8FE0020FFF7B5FE0020FFF7B2FE74
:1041100001224FF48051204601F019FF102000F0D9
:104120007FFE10BD0004024010B5164C00224FF473
:104130008051204601F00BFF0120FFF79BFE442039
:10414000FFF798FE0020FFF795FE0120FFF792FE93
:104150000320FFF78FFE0020FFF78CFE0020FFF703
:1041600089FE0020FFF786FE0020FFF783FE012274
:104170004FF48051204601F0EAFE102000F050FE7E
:1041800010BD00BF0004024010B5114C00224FF4D6
:104190008051204601F0DBFE102000F041FE01209E
:1041A000FFF768FE4D20FFF765FE0020FFF762FE77
:1041B0000020FFF75FFE0120FFF75CFE01224FF4B5
:1041C0008051204601F0C3FE102000F029FE10BDF2
:1041D0000004024010B5174C00224FF480512046D5
:1041E00001F0B5FE102000F01BFE0120FFF742FE9B
:1041F0004320FFF73FFE0020FFF73CFE0020FFF7C3
:1042000039FE5A20FFF736FE5A20FFF733FE5A20B8
:10421000FFF730FE5A20FFF72DFE5A20FFF72AFE47
:1042200001224FF48051204601F091FE102000F051
:10423000F7FD10BD0004024008B5094B00221A60CA
:10424000FFF71AFFFFF718FFFFF716FFFFF73AFF18
:10425000FFF76AFFFFF798FFFFF7BCFF08BD00BF3D
:104260001405002008B50720FFF7CEFE0A4B1860A2
:104270000820FFF7C9FE094B18600520FFF7C4FEB0
:10428000074B18600620FFF7BFFE064B1860FFF7CC
:10429000CDFE054B186008BDDC060020D8060020C6
:1042A000D4060020D0060020CC06002008B50F4818
:1042B0000F4B03604FF48273436000238360C3603D
:1042C00002220261012242614FF4007282613822AF
:1042D000C2610362436283620A23C36202F0C4FFC5
:1042E00000B908BDFFF702FAFBE700BFE0060020B7
:1042F000003001402DE9F04188B00023039304937E
:104300000593069307930268204B9A4202D008B0A7
:10431000BDE8F0810024009403F584335A6C42F424
:1043200080525A645A6C02F480520092009A0194AE
:104330001A6B42F002021A631A6B02F00202019237
:10434000019A02941A6B42F001021A631B6B03F08C
:1043500001030293029B182303934FF00208CDF848
:104360001080032706970526079603AD29460848BF
:1043700001F0F0FC80230393CDF81080059406979C
:1043800007962946034801F0E5FCC0E700300140EC
:10439000000402400000024082B0002100910B4B5B
:1043A0005A6C42F480425A645A6C02F48042009281
:1043B000009A01911A6C42F080521A641B6C03F04F
:1043C00080530193019B02B0704700BF0038024048
:1043D000FEE7FEE7FEE7FEE7FEE77047704770473F
:1043E00008B502F0E3F808BD08B5012001F0B6FDFC
:1043F000014B01221A6008BD3807002008B50820CB
:1044000001F0ACFDFEF736FC08BD000008B502481F
:1044100001F052F808BD00BFD802002008B50348DB
:1044200003F0BAF9024803F0B7F908BDDC08002030
:10443000BC07002008B5024803F0AEF908BD00BF74
:104440009408002008B5034803F0A6F900F0AEF880
:1044500008BD00BF0408002008B5024801F0FEFEB8
:1044600008BD00BF8409002008B5024801F0F6FE2F
:1044700008BD00BF2409002008B5024801F0EEFE87
:1044800008BD00BFE409002008B5024803F086FF1C
:1044900008BD00BF440A00200120704708B506F09F
:1044A000ABF8162303604FF0FF3008BD08B54FF09E
:1044B000FF31FFF7F3FFFEE770B50C461646002507
:1044C00006E0AFF30080214601F8010B01350C46F0
:1044D000B542F6DB304670BD70B50C461646002579
:1044E00004E014F8010BAFF300800135B542F8DBAE
:1044F000304670BD4FF0FF3070474FF400534B60B3
:1045000000207047012070470020704710B5034617
:104510000C4A0D490D48006840B10C48006803443E
:10452000521A934206D8094A136010BD0748084C36
:104530000460F2E706F060F80C2303604FF0FF30F0
:10454000F3E700BF00000220000400003C07002049
:10455000A80D0020034AD2F8883043F47003C2F853
:104560008830704700ED00E010B50E4A1378013333
:10457000DBB213700C4C03EB430E04EB8E02906025
:104580004FF0000C82F801C0D17082F804C0012104
:1045900004F82E1082F806C082F805C082F802C026
:1045A000104610BDB907002040070020114A1378BB
:1045B00001331370012301E00133DBB20E4A12789C
:1045C0009A4216D303EB43018A000C498A5C002A05
:1045D000F2D003EB43029100084A0A441279002A00
:1045E000EAD003EB4301880004490144013A0A710F
:1045F000E2E77047B8070020B90700204007002015
:10460000F8B5012413E0204E6F0005EB450293003E
:1046100033441E4A12785A7101225A709B68984797
:104620007B199A001644002373700134E4B2184BCE
:104630001B78A34226D3254604EB44029300124A7A
:10464000D35C002BF1D004EB44039A000E4B1344CF
:104650005B78002BE9D10C4B13441B79002BE4D180
:10466000094B1344DA781A715979084A1278521AA8
:10467000D2B29A719B78002BC5D02146054800F034
:1046800037FCC0E7F8BD00BF40070020B807002096
:10469000B90700205407010800B587B00023029332
:1046A000039304930593009301931648164A0260FE
:1046B00044F29F12426083600922C2600361436139
:1046C000836103F085F9A0B94FF48053029302A9E6
:1046D0000C4803F088FA78B90023009301936946E7
:1046E000084803F08DFB50B9064803F00DF807B0F9
:1046F00000BDFEF7FBFFE7E7FEF7F8FFECE7FEF78C
:10470000F5FFF1E7DC0800200000014000B587B0AC
:104710000023029303930493059300930193164897
:10472000164A026044F29F12426083600922C2600E
:104730000361836103F04CF9A0B94FF480530293F5
:1047400002A90D4803F04FFA78B9002300930193B2
:104750006946094803F054FB50B9074802F0D4FFFA
:1047600007B000BDFEF7C2FFE7E7FEF7BFFFECE7CB
:10477000FEF7BCFFF1E700BF9408002000080040EE
:1047800000B587B00023029303930493059300932D
:1047900001931648164A026044F29F1242608360F9
:1047A0000922C26003614361836103F011F9A0B97A
:1047B0004FF48053029302A90C4803F014FA78B91D
:1047C0000023009301936946084803F019FB50B990
:1047D000064802F099FF07B000BDFEF787FFE7E744
:1047E000FEF784FFECE7FEF781FFF1E70408002005
:1047F0000004014000B587B00368374A93420DD0EA
:10480000364A93421ED0364A93422FD0354A9342BD
:1048100039D0354A93424AD007B000BD00210191FA
:10482000324B5A6C42F001025A645B6C03F0010394
:104830000193019B0A46192001F050FE192001F056
:104840005DFEE9E700210291284B1A6C42F0040258
:104850001A641B6C03F004030293029B0A461E2099
:1048600001F03CFE1E2001F049FED5E70023039332
:104870001E4B1A6C42F008021A641B6C03F008030A
:104880000393039BC8E700210491184B5A6C42F034
:1048900002025A645B6C03F002030493049B0A4611
:1048A0002C2001F01BFE2C2001F028FEB4E7002193
:1048B00005910E4B5A6C42F400325A645B6C03F45F
:1048C00000330593059B0A46192001F007FE1920C5
:1048D00001F014FEA0E700BF000001400008004006
:1048E000000C004000040140004401400038024038
:1048F00000B589B0002303930493059306930793AF
:1049000003681B4A934204D01A4A934218D009B054
:1049100000BD00230193184B1A6B42F080021A630A
:104920001B6B03F080030193019B4FF4E05303934F
:1049300002230493079303A9104801F00BFAE6E75A
:10494000002302930C4B1A6B42F020021A631B6B7C
:1049500003F020030293029B40230393022304935A
:104960000323079303A9064801F0F4F9CFE700BF3A
:10497000000C00400044014000380240001C02408E
:104980000014024010B58EB000230A930B930C93D1
:104990000D93089309930193029303930493059352
:1049A000069307933348344A0260436083604FF6AE
:1049B000FF72C2600361836103F00AF8002843D1EB
:1049C0004FF480530A930AA92A4803F00CF90028EF
:1049D0003DD1284803F028F800283BD10023089354
:1049E000099308A9234803F00BFA002835D1602366
:1049F0000193002202920392059201A91D4803F03F
:104A000077F868BB04220DEB02011A4803F070F836
:104A100048BB082201A9174803F06AF830BB154CBF
:104A2000204602F071FE0021204603F06BF90421BC
:104A3000204603F067F90821204603F063F9204679
:104A4000FFF756FF0EB010BDFEF750FEB8E7FEF7B9
:104A50004DFEBEE7FEF74AFEC0E7FEF747FEC6E79B
:104A6000FEF744FECEE7FEF741FED2E7FEF73EFE3C
:104A7000D5E700BF4C080020000C004000B589B00D
:104A800000230193029303930493059306930793E2
:104A90001448154A02604360836041F28732C26065
:104AA0000361836102F094FF98B90E4802F0BCFFE5
:104AB00090B960230193002202920392059201A90A
:104AC000084803F015F850B90648FFF711FF09B080
:104AD00000BDFEF70BFEE8E7FEF708FEE9E7FEF78C
:104AE00005FEF1E7BC0700200044014030B583B06B
:104AF000194B1B681A6812F0100F04D1164803F006
:104B00004DFC03B030BD002201921A6801925B682F
:104B10000193019B104803F021FB104B1B685C685C
:104B2000A4B2C4F14004A4B20CB13F2C05D9402278
:104B30000B49094803F022FEE0E70A4D22460849E6
:104B4000284605F09BFD00232B55074B1C80074B87
:104B500001221A70EBE700BF8C0A002084090020B4
:104B6000BC0400207C0400207A040020780400208B
:104B700008B5034B01221A70FEF7F6FA08BD00BF14
:104B80007804002038B5114C002584F8505084F882
:104B9000515084F8785050222946204605F0DCFC1C
:104BA000C4F85250C4F85650C4F85950C4F85D5077
:104BB000C4F861506566A4F86850C4F86A50C4F837
:104BC0006E50C4F87250A4F8765038BDD40A002054
:104BD00008B50A480A4B03604FF4E13343600023F1
:104BE0008360C36003610C2242618361C36103F08F
:104BF00045FA00B908BDFEF779FDFBE78C0A0020F5
:104C00000010014008B50A480A4B03604FF4E13335
:104C1000436000238360C36003610C2242618361AF
:104C2000C36103F02BFA00B908BDFEF75FFDFBE797
:104C3000440A0020001401402DE9F0438BB00446E3
:104C40000023059306930793089309930368684A22
:104C5000934206D0674A934200F082800BB0BDE8D1
:104C6000F08300250095644B5A6C42F010025A64A0
:104C70005A6C02F010020092009A01951A6B42F0F1
:104C800002021A631A6B02F002020192019A029563
:104C90001A6B42F001021A631B6B03F001030293CB
:104CA000029B802305934FF00209CDF818904FF036
:104CB0000308CDF820800727099705AE31464F48F5
:104CC00001F048F84FF400730593CDF8189007955C
:104CD000CDF8208009973146494801F03BF8494812
:104CE000494B03604FF00063436040238360C5601D
:104CF0004FF48063036145618561C5614FF4003302
:104D00000362456201F0B4F920BB3E4BA3639C6390
:104D10003E483F4B03604FF00063436000238360D5
:104D2000C3604FF48062026143618361C3614FF4E9
:104D300040320262436201F09BF970B9334BE36386
:104D40009C6300221146252001F0C8FB252001F0BC
:104D5000D5FB83E7FEF7CAFCD7E7FEF7C7FCEDE714
:104D600000250395244B5A6C42F020025A645A6C79
:104D700002F020020392039A04951A6B42F040025B
:104D80001A631B6B03F040030493049B4FF48443AA
:104D9000059302230693032308930823099305A987
:104DA0001C4800F0D7FF1C481C4B03604FF02063E9
:104DB000436040238360C5604FF4806303614561B5
:104DC0008561C5614FF440330362456201F050F9DB
:104DD00058B9114BA3639C6300221146472001F090
:104DE0007DFB472001F08AFB38E7FEF77FFCF0E708
:104DF000001001400014014000380240000402404D
:104E000000000240E4090020B86402408409002048
:104E1000406402400018024024090020A0640240BF
:104E200010B5044600F070FF084AA2FB0020800C79
:104E300001F068FB601E01F0CBFB00F065FF044B46
:104E4000A3FB0030800901F05DFB10BD83DE1B4336
:104E5000D34D621030B52DED028B87B0FCF72CFBE3
:104E6000FEF720FDFFF7E8F9FDF780FFFCF7FAF900
:104E70000028FBD1194C2046FDF702F8184DB7EE7B
:104E8000008A95ED007AC8EE077AFCEEE77A17EE15
:104E9000901A1448FDF7DEFA2046FCF7F1FF0123D3
:104EA0008DF800304FF07C5301930F4B02930F4B62
:104EB0000393049395ED007AC8EE077AB1EE047A75
:104EC00067EE877AFCEEE77ACDED057A69462046F3
:104ED000FCF75CFF07B0BDEC028B30BDAC030020DB
:104EE00008000020940300200000FA440000204144
:104EF0000FB408B5104B93F84130202B03D0BDE818
:104F0000084004B0704703AB0C4A1360029A4FF498
:104F100080710B4804F078FC80B20A4B1880B0F521
:104F2000807F02D94FF480721A80064B1A88044998
:104F3000014803F0D3F8E2E78C0A0020500C00206F
:104F4000500B00204E0B0020002800F0A18038B547
:104F5000044690F82030D3B12268136843F001036F
:104F6000136001F02FFB054623685A6812F0010F09
:104F700010D101F027FB401B0A28F5D9636A43F4DE
:104F800000336362052384F82030012038BDFCF72C
:104F900069FBE1E71A6822F002021A6001F012FBD5
:104FA000054623685A6812F0020F0DD001F00AFB83
:104FB000401B0A28F5D9636A43F400336362052372
:104FC00084F820300120E1E7227E012A3DD01A68D2
:104FD00022F080021A60637E012B3BD022681368A6
:104FE00023F040031360A37E012B39D0226813689D
:104FF00023F020031360E37E012B37D0226813686F
:1050000043F010031360237F012B35D0226813680F
:1050100023F008031360637F012B33D022681368E9
:1050200023F004031360A368E26813432269134367
:10503000626913436268013A21681343CB6100201F
:105040006062012384F82030A0E71A6842F08002F1
:105050001A60C0E72268136843F040031360C2E798
:105060002268136843F020031360C4E722681368C2
:1050700023F010031360C6E72268136843F00803A7
:105080001360C8E72268136843F004031360CAE79B
:105090000120704790F82030013BDBB2012B05D98D
:1050A000436A43F4802343620120704730B5464B86
:1050B000D3F8002242F00102C3F80022D3F8002204
:1050C00022F47C52C3F80022D3F80022486A42EA54
:1050D0000022C3F800224A6902F01F02012000FAF0
:1050E00002F2D3F81C026FEA020C20EA0200C3F8B5
:1050F0001C02CB69C3B9344BD3F80C020CEA000094
:10510000C3F80C028C884869CD6844EA05444830ED
:1051100043F830408C68088840EA04404C6904F148
:10512000480E03EBCE035860CB69012B1ED08B6970
:10513000002B33D12448D0F804320CEA0303C0F822
:1051400004320B698BBB2048D0F814320CEA0303FD
:10515000C0F814320B6A012B2ED01B4AD2F8003251
:1051600023F00103C2F80032002030BD164BD3F803
:105170000C021043C3F80C028C8848690D6844EA9D
:105180000544483043F8304088894C698D6840EACE
:105190000540483403EBC4035860C8E70A48D0F818
:1051A00004321343C0F80432CBE70748D0F8143276
:1051B0001343C0F81432CDE70349D1F81C3213432E
:1051C000C1F81C32C9E700BF0064004070B5044656
:1051D00090F82030012B06D0436A43F40023436249
:1051E0000126304670BDDEB2022380F8203002680E
:1051F000136823F00103136001F0E4F90546236806
:105200005B6813F0010F0CD001F0DCF9431B0A2B93
:10521000F5D9636A43F400336362052384F82030D0
:10522000DFE700266662DCE730B590F820C004684E
:10523000A4680CF1FF3C5FFA8CFCBCF1010F62D852
:1052400014F0E05F59D0C4F3016C012404FA0CF4AB
:105250001C608B68002B3DD10D68CB68046843EA65
:1052600045550CF118031B01E55003680C690CF15E
:10527000180E03EB0E135C600B7D012B35D0D1793A
:1052800093791B0443EA0163517943EA01231479BA
:105290000168234301EB0C11C1F88C31D17893786C
:1052A0001B0443EA0163517843EA01231178026841
:1052B0000B4302EB0C12C2F8883102680CF1180C97
:1052C0004FEA0C1C52F80C3043F0010342F80C304A
:1052D00000201DE04C6843EAC403CC6823430CF172
:1052E0001804240105682B51BFE7036803EB0E1374
:1052F000596841F480715960C1E7436A43F400136F
:105300004362012004E0436A43F4802343620120A6
:1053100030BD90F820C00CF1FF3C5FFA8CFCBCF172
:10532000010F00F2A58030B451B90468E46814F0AC
:10533000030F10D1436A43F40013436201207EE05F
:105340000468246914F0030F05D1436A43F4001381
:105350004362012073E0056801F11B0424012C590C
:1053600004F004049460002C6BD1056801F11B0467
:1053700024012C59640D1460046801F11B0C4FEAE0
:105380000C1C54F80C4004F00204D4600468A444DB
:10539000DCF8045015F0080F5BD008241461046891
:1053A00001F11B0C04EB0C146468C4F30724946132
:1053B000046804EB0C146468240C5461026802EB6A
:1053C0000112D2F8B8211A70026802EB0112D2F869
:1053D000B821C2F307225A70026802EB0112D2F818
:1053E000B821C2F307429A70026802EB0112D2F8A8
:1053F000B821120EDA70026802EB0112D2F8BC2159
:105400001A71026802EB0112D2F8BC21C2F3072222
:105410005A71026802EB0112D2F8BC21C2F30742B2
:105420009A71026802EB0112D2F8BC21120EDA71F5
:10543000C1B90268D36843F02003D360002030BCB8
:105440007047056801F11B0424012C59E4085460DD
:1054500092E701F11B0504EB0514646804F00F04E6
:1054600014619CE70268136943F020031361E5E7C8
:10547000436A43F4802343620120704790F8203050
:10548000013BDBB2012B05D9436A43F4802343621D
:1054900001207047026853690B4353610020704735
:1054A0007047704770477047704770477047704744
:1054B00070477047704770472DE9F84F05460368FD
:1054C0005C69D3F804809F68D3F80CA0D3F81090DF
:1054D000D3F818B014F001063BD017F0010616D02F
:1054E00001229A6017F0020F08D117F0040F0CD1B7
:1054F00017F0080606D04FF4805608E0FFF7D0FFFB
:10550000002604E0FFF7CFFF01E04FF4006617F438
:10551000807F0DD02B684FF480729A6017F4007F63
:1055200040F0968017F4806F00F0968046F40056A5
:1055300017F4803F0DD02B684FF480329A6017F437
:10554000003F40F0938017F4802F00F0938046F4E2
:10555000004614F0080F07D01AF0100F04D046F4DC
:1055600000762B681022DA6014F0040F03D01AF0D2
:10557000080F40F0898014F0020F05D02B68DB681B
:1055800013F0030F40F0878014F0400F07D019F09C
:10559000100F04D046F480662B6810221A6114F0B4
:1055A000200F02D019F0080F79D114F0100F04D099
:1055B0002B681B6913F0030F78D114F4003F02D05D
:1055C00018F0100F76D114F4803F02D018F0080FB5
:1055D00077D114F4004F37D018F0040F31D014F401
:1055E000807F04D01BF0010F01D046F0010614F4B7
:1055F000007F04D01BF0020F01D046F0020614F425
:10560000806F04D01BF0040F01D046F0040614F4A0
:10561000006F16D01BF0700B13D0BBF1400F66D09B
:1056200056D8BBF1200F5CD0BBF1300F5CD0BBF182
:10563000100F01D146F008062A68936923F0700321
:1056400093612B6804225A60002E56D1BDE8F88F72
:105650002846FFF726FF6BE717F4006F02D046F4E9
:10566000804665E72846FFF71FFF61E72846FFF7FA
:1056700019FF6EE717F4002F02D046F4803668E772
:105680002846FFF712FF64E72B680822DA602846F5
:10569000FFF70CFF6FE72846FBF73CFF74E72B682A
:1056A00008221A612846FFF703FF7EE72846FFF726
:1056B000FEFE82E72B6810225A602846FFF7F9FEAB
:1056C00081E72B6808225A602846FFF7F3FE80E73F
:1056D000BBF1500F0ED0BBF1600FADD146F4807618
:1056E000AAE746F01006A7E746F02006A4E746F032
:1056F0004006A1E746F080069EE76B6A33436B6283
:105700002846FFF7D8FEA1E7002800F0E08170B539
:1057100082B00446036813F0010F3BD09F4B9B6897
:1057200003F00C03042B2CD09C4B9B6803F00C0360
:10573000082B21D06368B3F5803F4FD0B3F5A02F7D
:1057400052D0964B1A6822F480321A601A6822F4FA
:1057500080221A606368002B50D000F033FF0546AA
:105760008E4B1B6813F4003F14D100F02BFF401B3D
:105770006428F5D90320B1E1884B5B6813F4800FEE
:10578000D8D0864B1B6813F4003F03D06368002B0E
:1057900000F09F81236813F0020F54D07F4B9B6869
:1057A00013F00C0F3ED07D4B9B6803F00C03082BCD
:1057B00033D0E368002B68D0794B01221A6000F0E7
:1057C00001FF0546754B1B6813F0020F54D100F022
:1057D000F9FE401B0228F5D903207FE16F4A1368C8
:1057E00043F480331360B5E76C4B1A6842F48022AF
:1057F0001A601A6842F480321A60ABE700F0E2FEE9
:105800000546664B1B6813F4003FC3D000F0DAFE78
:10581000401B6428F5D9032060E1604B5B6813F4FA
:10582000800FC6D15D4B1B6813F0020F03D0E368F5
:10583000012B40F05081594A136823F0F803216985
:1058400043EAC1031360236813F0080F42D0636971
:105850006BB3534B0122C3F8802E00F0B3FE054614
:105860004E4B5B6F13F0020F34D100F0ABFE401BC8
:105870000228F5D9032031E1484A136823F0F803E0
:10588000216943EAC1031360DDE7454B00221A603A
:1058900000F098FE0546414B1B6813F0020FD2D072
:1058A00000F090FE401B0228F5D9032016E13C4B86
:1058B0000022C3F8802E00F085FE0546374B5B6F53
:1058C00013F0020F06D000F07DFE401B0228F5D930
:1058D000032003E1236813F0040F77D02F4B1B6CD8
:1058E00013F0805F33D1002301932C4B1A6C42F0EC
:1058F00080521A641B6C03F080530193019B0125B5
:10590000284B1B6813F4807F23D0A368012B34D06D
:10591000052B38D0214B1A6F22F001021A671A6F3B
:1059200022F004021A67A368002B3DD000F04AFE63
:1059300006461A4B1B6F13F0020F46D100F042FED1
:10594000801B41F288339842F3D90320C6E000253A
:10595000D6E7144A136843F48073136000F032FEF4
:105960000646104B1B6813F4807FCED100F02AFE50
:10597000801B0228F5D90320B0E0084A136F43F0DA
:1059800001031367CFE7054B1A6F42F004021A6751
:105990001A6F42F001021A67C5E700BF00380240E3
:1059A000000047420070004000F00CFE0646524BDB
:1059B0001B6F13F0020F08D000F004FE801B41F2B1
:1059C00088339842F3D9032088E0EDB9A369002B0E
:1059D00000F08380484A926802F00C02082A51D0F5
:1059E000022B17D0454B00221A6600F0EBFD04464F
:1059F000414B1B6813F0007F42D000F0E3FD001B19
:105A00000228F5D9032069E03B4A136C23F0805348
:105A10001364DBE7394B00221A6600F0D3FD05461C
:105A2000354B1B6813F0007F06D000F0CBFD401B08
:105A30000228F5D9032051E0E369226A1343626A20
:105A400043EA8213A26A5208013A43EA0243E26A35
:105A500043EA0263284A5360284B01221A6600F089
:105A6000B1FD0446244B1B6813F0007F06D100F003
:105A7000A9FD001B0228F5D903202FE000202DE00E
:105A800000202BE0012B2BD01B4B5B6803F4800123
:105A9000E269914226D103F03F02216A8A4223D172
:105AA000616A47F6C0721A40B2EB811F1ED103F43F
:105AB0004031A26A5208013AB1EB024F18D103F00B
:105AC0007063E26AB3EB026F14D1002006E001209C
:105AD0007047012002E0012000E0002002B070BD0C
