:020000040800F2
:10000000000002205D830008793F00087B3F000864
:100010007D3F00087F3F0008813F0008000000008E
:10002000000000000000000000000000833F000806
:10003000853F000800000000873F0008893F000856
:10004000AD830008AD830008AD830008AD830008D0
:10005000AD830008AD830008913F0008AD83000820
:10006000AD830008A53F0008AD830008AD830008FC
:10007000AD830008AD830008AD830008AD830008A0
:10008000AD830008AD830008AD830008AD83000890
:10009000B53F0008AD830008AD830008AD830008BC
:1000A000AD830008C53F0008AD830008AD8300089C
:1000B000AD830008AD830008DD3F0008AD83000874
:1000C000AD830008AD830008AD830008AD83000850
:1000D000AD8300089D460008AD830008AD8300088D
:1000E000AD830008AD830008AD830008AD83000830
:1000F000ED3F0008AD830008AD830008AD83000824
:10010000AD830008AD830008AD830008AD8300080F
:10011000AD830008AD830008AD830008AD830008FF
:10012000AD830008AD83000801400008AD830008DE
:10013000AD830008AD830008AD830008AD830008DF
:10014000AD830008AD830008AD830008AD830008CF
:10015000AD8300081140000821400008314000082C
:10016000AD830008AD830008AD830008AD830008AF
:10017000AD830008AD830008AD83000800000000D7
:08018000AD830008AD83000807
:1001900001F0FF01102A2BDB10F0070F08D010F838
:1001A000013B013A8B422DD010F0070F42B3F6D13C
:1001B000F0B441EA012141EA014122F007047FF055
:1001C00000070023F0E80256083C85EA010586EAAC
:1001D000010685FA47F5A3FA87F586FA47F6A5FAE8
:1001E00087F68EB9EED1F0BC01F0FF0102F00702F4
:1001F00032B110F8013B013A83EA010313B1F8D19F
:100200000020704701387047002D06BF354603387F
:10021000073815F0010F07D1013015F4807F02BFB8
:10022000013015F4C03F0130F0BC0138704700BF09
:10023000034613F8012B002AFBD1181A0138704726
:1002400081F0004102E000BF83F0004330B54FEA87
:1002500041044FEA430594EA050F08BF90EA020FF4
:100260001FBF54EA000C55EA020C7FEA645C7FEA87
:10027000655C00F0E2804FEA5454D4EB5555B8BFAA
:100280006D420CDD2C4480EA020281EA030382EA1B
:10029000000083EA010180EA020281EA0303362DAD
:1002A00088BF30BD11F0004F4FEA01314FF4801C80
:1002B0004CEA113102D0404261EB410113F0004F92
:1002C0004FEA03334CEA133302D0524263EB430349
:1002D00094EA050F00F0A780A4F10104D5F1200EE7
:1002E0000DDB02FA0EFC22FA05F2801841F1000142
:1002F00003FA0EF2801843FA05F359410EE0A5F116
:1003000020050EF1200E012A03FA0EFC28BF4CF046
:10031000020C43FA05F3C01851EBE37101F00045FC
:1003200007D54FF0000EDCF1000C7EEB00006EEB09
:100330000101B1F5801F1BD3B1F5001F0CD3490893
:100340005FEA30004FEA3C0C04F101044FEA4452EA
:1003500012F5800F80F09A80BCF1004F08BF5FEA71
:10036000500C50F1000041EB045141EA050130BD51
:100370005FEA4C0C404141EB0101013C28BFB1F563
:10038000801FE9D291F0000F04BF01460020B1FAAE
:1003900081F308BF2033A3F10B03B3F120020CDA81
:1003A0000C3208DD02F1140CC2F10C0201FA0CF05F
:1003B00021FA02F10CE002F11402D8BFC2F1200CC4
:1003C00001FA02F120FA0CFCDCBF41EA0C0190407A
:1003D000E41AA2BF01EB0451294330BD6FEA0404C3
:1003E0001F3C1CDA0C340EDC04F11404C4F12002AE
:1003F00020FA04F001FA02F340EA030021FA04F3C0
:1004000045EA030130BDC4F10C04C4F1200220FA16
:1004100002F001FA04F340EA0300294630BD21FA54
:1004200004F0294630BD94F0000F83F4801306BF1A
:1004300081F480110134013D4EE77FEA645C18BF0E
:100440007FEA655C29D094EA050F08BF90EA020FA5
:1004500005D054EA000C04BF1946104630BD91EA9D
:10046000030F1EBF0021002030BD5FEA545C05D1A0
:100470004000494128BF41F0004130BD14F58004DF
:100480003CBF01F5801130BD01F0004545F0FE4153
:1004900041F470014FF0000030BD7FEA645C1ABF88
:1004A000194610467FEA655C1CBF0B46024650EABF
:1004B000013406BF52EA033591EA030F41F40021EB
:1004C00030BD00BF90F0000F04BF0021704730B571
:1004D0004FF4806404F132044FF000054FF0000146
:1004E00050E700BF90F0000F04BF0021704730B507
:1004F0004FF4806404F1320410F0004548BF4042DC
:100500004FF000013EE700BF42004FEAE2014FEA30
:1005100031014FEA02701FBF12F07F4393F07F4F0B
:1005200081F06051704732F07F4208BF704793F00E
:100530007F4F04BF41F40021704730B54FF4607421
:1005400001F0004521F000411CE700BF50EA010224
:1005500008BF704730B54FF000050AE050EA0102CD
:1005600008BF704730B511F0004502D5404261EB3D
:1005700041014FF4806404F132045FEA915C3FF47E
:10058000D8AE4FF003025FEADC0C18BF03325FEA1B
:10059000DC0C18BF033202EBDC02C2F1200300FACC
:1005A00003FC20FA02F001FA03FE40EA0E0021FAF1
:1005B00002F11444BDE600BF70B54FF0FF0C4CF4DF
:1005C000E06C1CEA11541DBF1CEA135594EA0C0F91
:1005D00095EA0C0F00F0DEF82C4481EA030621EACC
:1005E0004C5123EA4C5350EA013518BF52EA033507
:1005F00041F4801143F4801338D0A0FB02CE4FF0B9
:100600000005E1FB02E506F00042E0FB03E54FF0E8
:100610000006E1FB03569CF0000F18BF4EF0010EE0
:10062000A4F1FF04B6F5007F64F5407404D25FEADC
:100630004E0E6D4146EB060642EAC62141EA55518F
:100640004FEAC52040EA5E504FEACE2EB4F1FD0CD1
:1006500088BFBCF5E06F1ED8BEF1004F08BF5FEA4F
:10066000500E50F1000041EB045170BD06F0004601
:1006700046EA010140EA020081EA0301B4EB5C04AE
:10068000C2BFD4EB0C0541EA045170BD41F48011A6
:100690004FF0000E013C00F3AB8014F1360FDEBFCB
:1006A000002001F0004170BDC4F10004203C35DAA7
:1006B0000C341BDC04F11404C4F1200500FA05F32A
:1006C00020FA04F001FA05F240EA020001F00042CB
:1006D00021F0004110EBD37021FA04F642EB060141
:1006E0005EEA430E08BF20EAD37070BDC4F10C046B
:1006F000C4F1200500FA04F320FA05F001FA04F22F
:1007000040EA020001F0004110EBD37041F100011A
:100710005EEA430E08BF20EAD37070BDC4F1200525
:1007200000FA05F24EEA020E20FA04F301FA05F28D
:1007300043EA020321FA04F001F0004121FA04F235
:1007400020EA020000EBD3705EEA430E08BF20EA05
:10075000D37070BD94F0000F0FD101F0004640003F
:1007600041EB010111F4801F08BF013CF7D041EAC1
:10077000060195F0000F18BF704703F000465200C5
:1007800043EB030313F4801F08BF013DF7D043EA96
:100790000603704794EA0C0F0CEA135518BF95EA4C
:1007A0000C0F0CD050EA410618BF52EA4306D1D1D3
:1007B00081EA030101F000414FF0000070BD50EAF2
:1007C000410606BF1046194652EA430619D094EA7C
:1007D0000C0F02D150EA013613D195EA0C0F05D166
:1007E00052EA03361CBF104619460AD181EA0301BA
:1007F00001F0004141F0FE4141F470014FF0000072
:1008000070BD41F0FE4141F4780170BD70B54FF00C
:10081000FF0C4CF4E06C1CEA11541DBF1CEA13558C
:1008200094EA0C0F95EA0C0F00F0A7F8A4EB05046E
:1008300081EA030E52EA03354FEA013100F0888065
:100840004FEA03334FF0805545EA131343EA12632E
:100850004FEA022245EA111545EA10654FEA0026E3
:100860000EF000419D4208BF964244F1FD0404F59C
:10087000407402D25B084FEA3202B61A65EB0305F8
:100880005B084FEA32024FF480104FF4002CB6EBB5
:10089000020E75EB030E22BFB61A754640EA0C0035
:1008A0005B084FEA3202B6EB020E75EB030E22BF75
:1008B000B61A754640EA5C005B084FEA3202B6EBB6
:1008C000020E75EB030E22BFB61A754640EA9C0075
:1008D0005B084FEA3202B6EB020E75EB030E22BF45
:1008E000B61A754640EADC0055EA060E18D04FEA03
:1008F000051545EA16754FEA06164FEAC30343EAA3
:1009000052734FEAC2025FEA1C1CC0D111F4801F6F
:100910000BD141EA00014FF000004FF0004CB6E768
:1009200011F4801F04BF01430020B4F1FD0C88BF07
:10093000BCF5E06F3FF6AFAEB5EB030C04BFB6EB12
:10094000020C5FEA500C50F1000041EB045170BD05
:100950000EF0004E4EEA113114EB5C04C2BFD4EB32
:100960000C0541EA045170BD41F480114FF0000EB6
:10097000013C90E645EA060E8DE60CEA135594EA32
:100980000C0F08BF95EA0C0F3FF43BAF94EA0C0F35
:100990000AD150EA01347FF434AF95EA0C0F7FF4AA
:1009A00025AF104619462CE795EA0C0F06D152EAFE
:1009B00003353FF4FDAE1046194622E750EA4106E2
:1009C00018BF52EA43067FF4C5AE50EA41047FF4F3
:1009D0000DAF52EA43057FF4EBAE12E74FF0FF3C58
:1009E00006E000BF4FF0010C02E000BF4FF0010C29
:1009F0004DF804CD4FEA410C7FEA6C5C4FEA430CA2
:100A000018BF7FEA6C5C1BD001B050EA410C0CBFF0
:100A100052EA430C91EA030F02BF90EA020F002052
:100A2000704710F1000F91EA030F58BF994208BFB9
:100A300090422CBFD8176FEAE37040F00100704776
:100A40004FEA410C7FEA6C5C02D150EA013C07D1CD
:100A50004FEA430C7FEA6C5CD6D152EA033CD3D018
:100A60005DF8040B704700BF8446104662468C4612
:100A70001946634600E000BF01B5FFF7B7FF002845
:100A800048BF10F1000F01BD4DF808EDFFF7F4FF6E
:100A90000CBF012000205DF808FB00BF4DF808EDF9
:100AA000FFF7EAFF34BF012000205DF808FB00BF1C
:100AB0004DF808EDFFF7E0FF94BF012000205DF83E
:100AC00008FB00BF4DF808EDFFF7CEFF94BF0120F3
:100AD00000205DF808FB00BF4DF808EDFFF7C4FFEC
:100AE00034BF012000205DF808FB00BF4FEA410C35
:100AF0007FEA6C5C02D150EA013C0AD14FEA430C18
:100B00007FEA6C5C02D152EA033C02D14FF0000054
:100B100070474FF0010070474FEA410212F5001292
:100B200015D211D56FF47873B3EB625212D94FEA34
:100B3000C12343F0004343EA505311F0004F23FA1E
:100B400002F018BF404270474FF00000704750EA73
:100B5000013005D111F0004008BF6FF00040704730
:100B60004FF00000704700BF4A0011D212F500128A
:100B700011D20DD56FF47873B3EB62520ED44FEAF5
:100B8000C12343F0004343EA505323FA02F0704775
:100B90004FF00000704750EA013002D14FF0FF30B3
:100BA00070474FF0000070474FEA4102B2F1E04356
:100BB00024BFB3F5001CDCF1FE5C0DD901F0004C44
:100BC0004FEAC0024CEA5070B2F1004F40EB830094
:100BD00008BF20F00100704711F0804F21D113F1C0
:100BE0003872BCBF01F00040704741F480114FEAF9
:100BF0005252C2F11802C2F1200C10FA0CF320FA82
:100C000002F018BF40F001004FEAC1234FEAD3239E
:100C100003FA0CFC40EA0C0023FA02F34FEA430308
:100C2000CCE77FEA625307D150EA01331EBF4FF091
:100C3000FE4040F44000704701F0004040F0FE40AC
:100C400040F40000704700BF53B94AB9002908BFFB
:100C500000281CBF4FF0FF314FF0FF3000F00CB800
:100C6000ADF1080C6DE904CE0FF016FADDF804E0E2
:100C7000DDE9022304B07047704700BF0348044B0E
:100C8000834202D0034B03B118477047240200206F
:100C900024020020000000000548064B1B1AD90F53
:100CA00001EBA301491002D0034B03B11847704771
:100CB00024020020240200200000000010B5064C91
:100CC000237843B9FFF7DAFF044B13B10448AFF3BD
:100CD00000800123237010BD2402002000000000CA
:100CE0005403010808B5054B1BB105490548AFF38E
:100CF0000080BDE80840FFF7CFBF00BF0000000044
:100D0000280200205403010810B50C4600F032FA06
:100D1000204600F02FFA10BD10B50C4640F08000C0
:100D200000F028FA552000F025FA207010BD38B5E3
:100D30000D46144640F0800000F01CFA06E05520F5
:100D400000F018FA05F8010B013CE4B2002CF6D1D2
:100D500038BD000070B500F0E5F9802000F00AFA17
:100D6000552000F007FA552000F004FA00F0E4F9ED
:100D7000962000F0AFF900F0D5F9802000F0FAF9E4
:100D8000552000F0F7F9552000F0F4F900F0D4F9FF
:100D9000962000F09FF900F0C5F9B6217E20FFF7FC
:100DA000B3FF00F0C9F9502000F0B0F900F0BAF933
:100DB000802000F0DFF9552000F0DCF9552000F02C
:100DC000D9F900F0B9F9962000F084F900F0AAF9F9
:100DD000802000F0CFF9552000F0CCF9552000F02C
:100DE000C9F9044600F0A8F9962000F073F91E2C0A
:100DF00032D10024052C2DD800F094F9174A04EBC9
:100E00004403D1184E78D55C31462846FFF77CFF65
:100E100000F092F9962000F05DF900F083F945F0BA
:100E2000800000F0A7F9552000F0A4F9552000F04B
:100E3000A1F9054600F080F9962000F04BF9AE428A
:100E400002D10134E4B2D5E704EB4404034B23445C
:100E5000987800E0002070BDFF20FCE7A80301089F
:100E600070B582B000248DF8074000F06FF90DF1E5
:100E700007012046FFF750FF00F072F9962000F0BE
:100E800029F900F063F90DF107012046FFF744FF4F
:100E900000F066F9962000F01DF900F057F9B62130
:100EA0001420FFF731FF00F05BF9502000F02EF91D
:100EB00000F04CF90DF107012046FFF72DFF00F07F
:100EC0004FF9962000F006F900F040F90DF1070106
:100ED0002046FFF721FF00F043F9962000F0FAF8D2
:100EE0009DF807300F2B2ED1052C29D800F02EF9B4
:100EF000164A04EB4403D1184D78D65C2946304697
:100F0000FFF702FF00F02CF9962000F0E3F800F064
:100F10001DF90DF107013046FFF7FEFE00F020F944
:100F2000962000F0D7F89DF807309D4202D1013499
:100F3000E4B2D9E704EB4404044B2344987800E07E
:100F4000002002B070BDFF20FBE700BF9403010842
:100F500010B500F0BDF800F0BCF8FFF7FBFE04464A
:100F6000FFF77EFF2043C0B210BD0000F0B583B094
:100F700006460D46144600270097019700F0D2F868
:100F8000922000F0F7F8062269461220FFF7CFFE04
:100F900000F0D2F89DF801301B021BB29DF8002032
:100FA000134307EE903AF8EEE77A474A92ED007A5B
:100FB00067EE877AC5ED007A9DF803301B021BB2FD
:100FC0009DF802100B4307EE903A92ED007AF8EE8E
:100FD000E77A67EE877AC5ED017A9DF805301B0246
:100FE0001BB29DF80420134307EE903AF8EEE77A1F
:100FF00067EE877AC5ED027A00F0A8F80822694604
:101000003846FFF794FE00F0ABF89DF800300F2B48
:1010100027D000F087F8A22000F0ACF80222694641
:101020002220FFF784FE00F087F89DF800209DF84D
:1010300001305B0943EAC203B3F5806F01DBA3F51E
:10104000006307EE903AF8EEE77AB4EE007A67EEC6
:10105000877AB3EE077A77EE877AC4ED007A03B029
:10106000F0BD9DF803301B021BB29DF80220134314
:1010700007EE903AF8EEE77A144A92ED007A67EEBE
:10108000877AC6ED007A9DF805301B021BB29DF8E9
:1010900004100B4307EE903A92ED007AF8EEE77AEF
:1010A00067EE877AC6ED017A9DF807301B021BB206
:1010B0009DF80620134307EE903AF8EEE77A67EEC4
:1010C000877AC6ED027AA4E7040000200000002021
:1010D0007047704710B44FF0E0235C69A82202FB10
:1010E00000FC9B69002104E0E01A024411446145C0
:1010F00009D21A464FF0E0239B699A42FAD0F3D9FD
:10110000D21A1144F3E75DF8044B704710B504E0C0
:101110004FF47A70FFF7DEFF2046431E9CB2002892
:10112000F6D110BD08B500221021024804F0D1FC10
:1011300008BD00BF0000024008B50122102102488E
:1011400004F0C7FC08BD00BF0000024008B5002243
:101150000121024804F0BDFC08BD00BF00040240AC
:1011600008B501221146024804F0B3FC08BD00BFD7
:101170000004024000B587B08DF80F004FF47A7379
:10118000009301230DF117020DF10F01034805F043
:1011900092FE9DF8170007B05DF804FBD40600200E
:1011A00010B58AB00122089200230693079200939B
:1011B000019302930393059304930E4C69462046D2
:1011C00003F02AFD204603F0C3FD0221204603F070
:1011D00017FF0E2309930593074C6946204603F039
:1011E0001BFD204603F0B4FD0221204603F008FF5A
:1011F0000AB010BDD8020020B002002000B58BB0AC
:1012000001AB03AA002103F046FE039BA3F20122D7
:10121000062A2DD8013BDBB2174A1370174903EB9E
:1012200083004200881831F902C0A0F808C09DF878
:1012300004E09DF805C04CEA0E2C21F802C09DF890
:101240000620120212B29DF807C042EA0C02428048
:101250009DF80820120212B29DF809C042EA0C0261
:1012600082809DF80A0003EB83035A008B18987163
:101270000BB05DF804FB00BF4002002064020020B8
:1012800010B582B08E4694460F494FF400720A6042
:1012900000228A60CA6008220A610C4A0412147093
:1012A00050704FEA2E20907082F803E04FEA2C2015
:1012B000107182F805C018129071D37101AB044807
:1012C00003F074FD02B010BD4C0200204402002067
:1012D000D802002008B50D480D4B0360032343607E
:1012E00000238360C3604FF4102202614FF40012A8
:1012F0004261037643768376C3760377437703F0C0
:10130000E5FB00B908BD02F057F8FBE7D802002062
:101310000064004008B50D480D4B03600323436093
:1013200000238360C3604FF4102202614FF4001267
:101330004261037643768376C3760377437703F07F
:10134000C5FB00B908BD02F037F8FBE7B00200208A
:101350000068004010B58AB00023059306930793F8
:10136000089309930368394A934204D0384A934258
:1013700034D00AB010BD374A136801331360012B13
:101380001FD000240194344B1A6B42F008021A63F8
:101390001B6B03F008030193019B032305930222B7
:1013A000069208930923099305A92C4804F094FA9E
:1013B00022462146142004F057FE142004F064FE57
:1013C000D7E700230093244B1A6C42F000721A6492
:1013D0001B6C03F000730093009BD2E70023029381
:1013E0001D4B1A6C42F080621A641B6C03F0806320
:1013F0000293029B174A136801331360012B18D024
:1014000000230493144B1A6B42F002021A631B6B05
:1014100003F002030493049B6023059302230693C5
:10142000032308930923099305A90D4804F054FAEE
:101430009FE700230393084B1A6C42F000721A6472
:101440001B6C03F000730393039BD9E70064004017
:1014500000680040AC02002000380240000C02404E
:101460000004024010B582B000240194114B1A6BA5
:1014700042F480021A631B6B03F480030193019B07
:10148000224621463A2004F0EFFD3A2004F0FCFD0C
:1014900022462146452004F0E7FD452004F0F4FDF6
:1014A00022462146462004F0DFFD462004F0ECFDF4
:1014B00002B010BD0038024090B08DED070ACDEDAE
:1014C000080A8DED091ACDED041A8DED052ACDED32
:1014D000062A60EEA27A21EE027A77EEC77ACDED87
:1014E0000A7A21EE211A62EE802A31EE621A8DED1F
:1014F0000B1A22EE002A60EEA10A32EE602A8DED70
:101500000C2A0AAB93E8070010AB03E907009DED36
:101510000D0ADDED0E0A9DED0F1A10B0704790B068
:101520008DED030ACDED040A8DED051ACDED001AFF
:101530008DED012ACDED022A60EE211ACDED071ABC
:1015400060EE820ACDED080A21EE221A8DED091A0D
:101550000DAB07AA07CA83E807000DF1280C8CE839
:10156000070031EEA00A30EE010A10B070478EB0CD
:101570008DED010ACDED020A8DED031A20EE000A71
:101580008DED050A60EEA00ACDED060A21EE011AE6
:101590008DED071A0BAB05AA07CA83E807000DF10A
:1015A000200C8CE8070030EE200A30EE010A0EB065
:1015B0007047000000B52DED048B93B0B0EE409A5B
:1015C000F0EE608AB0EE418A8DED050ACDED060A97
:1015D0008DED071AFFF7CBFF1A4B10EE102AA3EB85
:1015E000620307EE103ADFED187A60EE277A67EEB5
:1015F000277A67EE277ADFED156A76EEE77A67EEEF
:10160000277A29EE279A8DED099A68EEA78ACDED03
:101610000A8A28EE278A8DED0B8A0FAB09AA07CA22
:1016200083E807000DF1300C8CE807009DED0C0AF3
:10163000DDED0D0A9DED0E1A13B0BDEC048B5DF8C7
:1016400004FB00BF12141F5F12D3363FFF51D83F77
:1016500094B08DED080ACDED090A8DED0A1ACDED95
:101660000B1A8DED052ACDED062A8DED073A60EEB9
:10167000C27A21EE227A77EEC77A21EE837A77EE6C
:10168000C77ACDED0C7A62EE007A21EE037A77EE1E
:10169000877A22EEA17A77EEC77ACDED0D7A62EEE7
:1016A000807A20EE837A77EEC77A62EE211A77EE9F
:1016B000A17ACDED0E7A23EE003A60EEA20A33EE67
:1016C000203A22EE012A33EE423A8DED0F3A0CAB6E
:1016D0000FCB0DF1500C0CE90F009DED100ADDED64
:1016E000110A9DED121ADDED131A14B070470000B7
:1016F00090B08DED040ACDED050A8DED061ACDED05
:10170000071A60EE007A20EEA07A77EE877A21EE53
:10171000017A77EE877A21EEA17A77EE877A1A4BF3
:1017200017EE902AA3EB620307EE103ADFED176A7B
:1017300067EEA67A67EE277A67EE277ADFED146AFE
:1017400076EEE77A67EE277A20EE270A8DED080A13
:1017500060EEA70ACDED090A21EE271A8DED0A1ACF
:1017600061EEA71ACDED0B1A08AB0FCB0DF1400CB3
:101770000CE90F009DED0C0ADDED0D0A9DED0E1A32
:10178000DDED0F1A10B0704712141F5F12D3363FF1
:10179000FF51D83F8AB00378012B2ED9022B5ED19E
:1017A000D0ED066AD0ED087A66EEA75A90ED076A8A
:1017B00090ED097A26EE075A75EEC55ACDED045A1A
:1017C00067EE877A26EE866A77EE867AF1EE677A9A
:1017D000CDED057A66EEA66AF6EE007A77EEE67A49
:1017E00027EE077A77EEC77ACDED067A04AB93E859
:1017F00007000AAB03E9070029E090ED076A90EDC6
:10180000097A66EE075AD0ED067AD0ED086A27EE1F
:10181000A65A75EEC55ACDED045A67EE266A26EE35
:10182000276A76EE866ACDED056A67EEA77AF6EE50
:10183000006A77EEE67A27EE077A77EE877ACDEDC3
:10184000067A04AB93E807000AAB03E907009DEDB5
:10185000070ADDED080A9DED091A0AB0704700235A
:10186000079308930993F2E78AB00378012B36D0E7
:10187000022B61D0002B40F08C80D0ED076AD0EDB8
:10188000087A26EEA77A90ED066AD0ED095A26EE80
:10189000255A37EE057A8DED047A26EE067AB6EEF5
:1018A000005A37EE457A27EEA75A37EE057A8DEDC6
:1018B000057A67EEA57A66EE866A77EEE67ACDED72
:1018C000067A04AB93E807000AAB03E907009DED35
:1018D000070ADDED080A9DED091A0AB0704790ED80
:1018E000067A67EE077AF6EE006A76EEE76AD0EDE2
:1018F000077A27EEA76A76EEC66ACDED046AD0EDC8
:10190000095A67EE256A90ED086A27EE865A76EE48
:10191000C56ACDED056A67EEA57A27EE067A77EE01
:10192000877AF1EE677ACDED067A04AB93E807008B
:101930000AAB03E90700CAE7D0ED077A90ED087A11
:1019400067EE876A90ED066AD0ED095A26EE255AB1
:1019500076EE856AF1EE666ACDED046A26EE065AE9
:10196000F6EE006A76EEC56A27EE075A76EEC56A8D
:10197000CDED056A67EE867A27EE257A77EEC77A8F
:10198000CDED067A04AB93E807000AAB03E9070044
:101990009DE7002307930893099398E700B591B05A
:1019A0008DED070ACDED080A8DED091ACDED041A6B
:1019B0008DED052ACDED062AFFF7B1FDB5EEC00A83
:1019C000F1EE10FA1CD4DDED041A9DED052ADDEDD3
:1019D000062A9DED070ADDED080A9DED091AFFF7BD
:1019E0006BFD8DED0A0ACDED0B0A8DED0C1A9DED08
:1019F0000A0ADDED0B0A9DED0C1A11B05DF804FB2F
:101A0000DDED041A9DED052ADDED062A9DED070AA0
:101A1000DDED080A9DED091AFFF74EFD8DED0D0A6B
:101A2000CDED0E0A8DED0F1AFFF7C4FD8DED0A0AFC
:101A3000CDED0B0A8DED0C1AD9E700004FF07E5367
:101A400083610023C361036243628362C3620363F1
:101A5000012280F834200A4A8263002280F8402064
:101A600043648364C36403654365836580F85C20D5
:101A700002664369436680F86820C2660367704760
:101A80000000204138B52DED028B04460D460B7841
:101A9000037091ED018A80ED018AD1ED027AF5EEB5
:101AA000407AF1EE10FA3DD09FED2F7A67EE877AFB
:101AB000C4ED027AD5ED037AF5EE407AF1EE10FA34
:101AC00033D19FED2A0A84ED030AD5ED047AF5EEB1
:101AD000407AF1EE10FA37D19FED240A84ED040A22
:101AE0006B69636163662367D5ED017AF5EE407A31
:101AF000F1EE10FA01D06B6913B91D4BE36023615D
:101B000094F834300BB984ED0E8AF2EE047A77EE55
:101B1000C87AF0EE086A87EEA67A84ED0F7ABDECFB
:101B2000028B38BDDFED117AC2E79FED120A27EE76
:101B3000800A0BF0FDFCF0EE000AF6EE007A20EED3
:101B4000270A0BF03FFCBEE79FED0A0A27EE800A4A
:101B50000BF0EEFCF0EE000AF6EE007A20EE270A1B
:101B60000BF030FCBAE700BF48E17A3FFFFF7F7F10
:101B7000FFFF7F7F35FA8E3C30B587B00546EC46D7
:101B8000084C0FCCACE80F0094E803008CE803008D
:101B900069462846FFF776FF2846FFF74FFF07B054
:101BA00030BD00BF7003010870B52DED068BCEB0BF
:101BB0000446B0EE408A04ABF0EE648A8DED070A6D
:101BC000CDED080A8DED091ACDED041A8DED052A2B
:101BD000CDED062A8DED013ACDED023A8DED034AA9
:101BE00000F1280593E8070085E80700B0EEC07A09
:101BF000D4ED027AB4EEE77AF1EE10FA0DDCB0EE35
:101C0000E07AF4EEC77AF1EE10FA06D4B0EEC17ABB
:101C1000F4EEC77AF1EE10FA10D50EAE04F1180505
:101C200095E80F0086E80F002046FFF707FF96E8CB
:101C30000F0085E80F00012384F8403094F8343019
:101C4000E3B1D4ED0E7A94ED0F7A27EE287A77EE91
:101C5000C77AC4ED0E7A94ED017AF4EEC77AF1EE0C
:101C600010FA04D4B5EE407AF1EE10FA06D184ED04
:101C70000E7A002384F8343084F840302046FFF791
:101C800089FD8DED1E0ACDED1F0A8DED201A002372
:101C90001B931C931D93012384F85C30DDED047AC3
:101CA000F5EE407AF1EE10FA0FD1DDED057AF5EEA2
:101CB000407AF1EE10FA71D1DDED067AF5EE407A58
:101CC000F1EE10FA6CD0002300E00023002B45D188
:101CD0009DED040ADDED050A9DED061AFFF76AFC8D
:101CE0008DED210ACDED220A8DED231ADDED1E1AB0
:101CF0009DED1F2ADDED202AFFF750FE84ED110A2D
:101D0000C4ED120A84ED131A94F8343043B9FFF786
:101D10002EFCD4ED037AB4EEE70AF1EE10FA41D8C6
:101D2000002384F85C30236E093B2366236E626EC9
:101D300093423BDD0022626684F85C206269002BDE
:101D400037DB934200DC1A46226694F85C302BB9EC
:101D50001BAB04F1440207CA83E807000023189371
:101D600019931A93012384F86830DDED017AF5EEBA
:101D7000407AF1EE10FA1ED1DDED027AF5EE407AEE
:101D8000F1EE10FA40F05281DDED037AF5EE407A83
:101D9000F1EE10FA00F04C8100230DE0002395E7EE
:101DA000012393E7236E01332366BFE7626962660E
:101DB000C4E70022C8E70023002B65D12046FFF7C7
:101DC00053FDB0EE40AAF0EE609AB0EE419A8DED70
:101DD0000E0ACDED0F0A8DED101ADDED011A9DED05
:101DE000022ADDED032A9DED1E0ADDED1F0A9DEDA1
:101DF000201AFFF761FB8DED240ACDED250A8DED4C
:101E0000261AFFF7D7FB8DED270ACDED280A8DEDB9
:101E1000291AF0EE4A1AB0EE692AF0EE492AFFF7C5
:101E2000BDFD84ED140AC4ED150A84ED161A94F86C
:101E300034304BB9FFF79BFBD4ED047AB4EEE70ADC
:101E4000F1EE10FA00F2F680002384F86830E36EB9
:101E5000093BE366E36E226F934240F3EF8000227A
:101E6000226784F868206269002BC0F2EA809342FE
:101E700000DC1A46E26694F868302BB918AB04F11E
:101E8000500207CA83E80700DFED6F7A28EE278A41
:101E90000EAD85ED008A9DED086A26EE276A85ED78
:101EA000016ADDED096A66EEA76AC5ED026A4BAB11
:101EB00095E8070083E8070015AE86E807009DED6A
:101EC0001B0ADDED187A30EE270A85ED000ADDEDFC
:101ED0001C7A9DED197A77EE877AC5ED017ADDEDF2
:101EE0001D5A9DED1A7A75EE875AC5ED025A48AB18
:101EF00095E8070083E807002AAE86E8070094ED1E
:101F00000E7A27EE000A85ED000A67EE277AC5ED06
:101F1000017A27EE257A85ED027A45AB95E8070030
:101F200083E807002DAE86E8070030EE080A85ED4D
:101F3000000A77EE867AC5ED017A37EE267A85EDCE
:101F4000027A42AB95E8070083E8070012AE86E804
:101F5000070028EE800A85ED000A68EEA77AC5ED35
:101F6000017A68EE878AC5ED028A3FAB95E80700E3
:101F700083E8070030AE86E807009DED302ADDEDEE
:101F8000312A9DED323A94ED060AD4ED070A94ED1C
:101F9000081AD4ED091AFFF75BFB8DED330ACDED7E
:101FA000340A8DED351ACDED361A0DF1280E04F1F7
:101FB000180C9CE80F008EE80F00DEED007A77EE3B
:101FC000807AC5ED007ADEED017A77EEA07AC5ED74
:101FD000017ADEED027A77EE817AC5ED027ADEEDE6
:101FE000037A77EEA17AC5ED037A0DF1EC0E95E850
:101FF0000F008EE80F0037AD85E80F008CE80F006A
:1020000094ED060AD4ED070A94ED081AD4ED091AE6
:10201000FFF76EFB84ED060AC4ED070A84ED081A8B
:10202000C4ED091A4EB0BDEC068B70BD0023C3E6AB
:102030000123C1E6E36E0133E3660BE762692267C1
:1020400011E7002216E700BF35FA0E3C88B01830C1
:102050000FC80DF1200C0CE90F009DED040ADDED19
:10206000050A9DED061ADDED071A08B0704796B017
:10207000D0ED075A90ED096A65EE866AD0ED067AD2
:1020800090ED087A27EE875A76EEC56A76EEA66A54
:10209000CDED0A6A26EE077A65EEA75A37EE257A65
:1020A00037EE077A8DED0B7A67EEA77AF6EE005AD7
:1020B00077EEE57A26EE066A77EE867A77EEA77AED
:1020C000CDED0C7A0378012B22D9022B48D104AB39
:1020D000283007C883E807009DED046A76EE866A1B
:1020E000CDED076ADDED056A37EE267A8DED087ACB
:1020F0009DED067A77EE877ACDED097A13AB07AAC4
:1021000007CA83E807000DF1340C8CE807001FE0D4
:1021100004AB283007C883E807009DED046A76EE1B
:10212000666ACDED076ADDED056A36EEC77A8DED9C
:10213000087A9DED067A77EE677ACDED097A10ABD5
:1021400007AA07CA83E807000DF1340C8CE80700E2
:102150009DED0D0ADDED0E0A9DED0F1A16B07047CC
:1021600000230D930E930F93F2E7000007EE901AF1
:10217000B8EE677AF7EE006AC6EE877A9FED077AC7
:1021800067EE877AC0ED007A01EB810141600023A0
:1021900083600023C360036143617047FDAD003E6F
:1021A00010B5A0B003468DED050ACDED060A8DED04
:1021B000071A0DF1200C00F10C0207CA8CE8070089
:1021C000DDED087A30EE670A8DED0B0ADDED097A58
:1021D00070EEE70ACDED0C0ADDED0A7A31EE671AF2
:1021E0008DED0D1A0DF1500C0BAA07CA8CE80700F3
:1021F0000DF1140E8EE80700B0EEC07AF0EE087A0A
:10220000B4EEE77AF1EE10FA58DCF0EEE07AB0EED8
:10221000087AF4EEC77AF1EE10FA4FDCF0EEC17AEC
:10222000F4EEC77AF1EE10FA48DC9A6859688A42EF
:1022300053D31A460C33D2ED007A27EE800A8DED87
:102240000B0A67EEA00ACDED0C0A67EE817ACDEDA0
:102250000D7A0DF1740E0DF12C0C9CE807008EE840
:10226000070011AC84E807000DF1200E93E8070089
:102270008EE807009DED087A37EE007A8DED0B7A37
:102280009DED097A37EE207A8DED0C7A9DED0A7A74
:1022900077EE277ACDED0D7A0DF1680E9CE80700F8
:1022A0008EE807000DF15C0C8CE8070083E807005E
:1022B0000EAB05AA07CA83E8070006E000229A6071
:1022C0000EAB05AA07CA83E807009DED0E0ADDEDF7
:1022D0000F0A9DED101A20B010BD01329A600EABAE
:1022E00005AA07CA83E80700EFE700002DE9F041DF
:1022F0008CB000240794089409940A940B940094D9
:10230000524B1A6B42F002021A631A6B02F002027D
:102310000092009A01941A6B42F040021A631A6B01
:1023200002F040020192019A02941A6B42F00102FB
:102330001A631A6B02F001020292029A03941A6B5A
:1023400042F008021A631A6B02F008020392039A21
:1023500004941A6B42F004021A631A6B02F004022E
:102360000492049A05941A6B42F080021A631A6B65
:1023700002F080020592059A06941A6B42F0200240
:102380001A631B6B03F020030693069BDFF8C880DB
:1023900022464021404603F09CFB2D4F224610214F
:1023A000384603F096FB2B4E22464BF20101304695
:1023B00003F08FFB402307930125089509940A94A5
:1023C00007A9404603F088FA082307934FF48813BF
:1023D0000893099407A9404603F07EFA07954FF445
:1023E00004130893099507A9384603F075FA1023DA
:1023F0000793089509940A9407A9384603F06CFAE4
:102400004BF201030793089509940A9407A93046F3
:1024100003F062FA4FF4804307930894099507A9E3
:10242000304603F059FA22462146062003F01CFEEE
:10243000062003F029FE22462146092003F014FE5F
:10244000092003F021FE0CB0BDE8F0810038024005
:1024500000000240000402400018024008B50B488A
:102460000B4B03600B4B436000238360C3604FF44E
:102470008042026143618361C361036204F00CF92D
:1024800000B908BD00F098FFFBE700BF0003002083
:10249000005C0040A08601002DE9F04188B00023D7
:1024A000039304930593069307930268204B9A4283
:1024B00002D008B0BDE8F081002500951D4C236BCB
:1024C00043F004032363236B03F004030093009B96
:1024D0000195236B43F001032363236B03F0010396
:1024E0000193019B4FF4007303934FF01208CDF852
:1024F0001080032706970426079603A90E4803F0C9
:10250000EBF94FF480730393CDF81080059506978F
:10251000079603A9094803F0DFF90295236C43F4F9
:1025200000032364236C03F400030293029BC0E7BF
:10253000005C0040003802400008024000000240F9
:1025400084B08EB00DF1380C8CE80F008DED050ACB
:10255000CDED060A8DED071ADDED0E7A67EE807A75
:102560009DED0F7A27EE207A77EE877A9DED107A2F
:1025700027EE017A77EE877ACDED087ADDED117AD4
:1025800060EE277A9DED127A20EE877A77EE877AD1
:102590009DED137A21EE077A77EE877ACDED097AF1
:1025A000DDED147A20EE270ADDED157A60EEA70A3C
:1025B00030EE200ADDED167A21EE271A30EE010A00
:1025C0008DED0A0A08AB93E807000CE907009DEDC2
:1025D0000B0ADDED0C0A9DED0D1A0EB004B070472C
:1025E00084B000B5A7B00DF1A00C8CE80F008DED04
:1025F000110ACDED120A8DED131ACDED0E1A8DEDE7
:102600000F2ACDED102A8DED0B3ACDED0C3A8DED64
:102610000D4A30EE430A8DED140A70EEE30ACDED5B
:10262000150A31EE441A8DED161A23AB0DF1500C3C
:102630009CE8070083E807000DF1680E8EE80700AC
:1026400061EE801ACDED141A22EE202A8DED152AA6
:1026500062EE812ACDED162A20AB9CE8070083E8C4
:1026600007000DF1740C8CE80700EC460DF1B00E7C
:10267000BEE80F00ACE80F00DEF80030CCF8003008
:1026800028AB0FCB9DED1D0ADDED1E0A9DED1F1A37
:10269000FFF756FF8DED170ACDED180A8DED191ACB
:1026A00027B05DF804EB04B0704784B000B59DB06E
:1026B0000DF1780C8CE80F008DED0D0ACDED0E0AB2
:1026C0008DED0F1ACDED0A1A8DED0B2ACDED0C2AEA
:1026D00030EE610A8DED100A70EEC20ACDED110ADE
:1026E00031EE621A8DED121A19AB10AA07CA83E8EF
:1026F00007000DF1580C8CE80700EC460DF1880E30
:10270000BEE80F00ACE80F00DEF80030CCF8003077
:102710001EAB0FCB9DED160ADDED170A9DED181AC5
:10272000FFF70EFF8DED130ACDED140A8DED151A8E
:102730001DB05DF804EB04B0704700002DE9F043D4
:102740002DED068B93B07A4C7A4D7B4A2146284674
:10275000FEF70CFC95ED000ADFED787A20EE270AF3
:10276000D5ED010A60EEA70A95ED021A21EE271AAF
:10277000734E86ED000AC6ED010A86ED021AD4ED0D
:10278000006ACDED096A94ED017A8DED0A7AD4EDF7
:10279000027ACDED0B7A9FED6B6A66EE866ACDED1F
:1027A000066A27EE067A8DED077A67EE867ACDED1A
:1027B000087A0FAC06AB93E8070084E807000CAB7F
:1027C00083E80700604C84E80700604BD3ED00AA63
:1027D00093ED01AAD3ED029AF1EE699A5C4DC5ED35
:1027E00000AA85ED01AAC5ED029ADFF88091DFF815
:1027F0008081584FEC4607F1100EBEE80F00ACE8A0
:102800000F00DEF80030CCF8003097E80F0099EDAB
:10281000003AD9ED013A99ED024AD8ED001A98ED47
:10282000012AD8ED022AFFF7DBFEB0EE409AF0EE67
:10283000608AB0EE418A86ED000AC6ED010A86ED97
:10284000021ADFF83091DFF83081434FEC4607F190
:10285000100EBEE80F00ACE80F00DEF80030CCF838
:10286000003097E80F0099ED003AD9ED013A99ED63
:10287000024AD8ED001A98ED012AD8ED022A94ED0B
:10288000000AD4ED010A94ED021AFFF7A9FE84EDC7
:10289000000AC4ED010A84ED021ADFF8E0802F4F30
:1028A000EC4607F1100EBEE80F00ACE80F00DEF8B2
:1028B0000030CCF8003097E80F00D8ED001A98ED02
:1028C000012AD8ED022AB0EE6A0AF0EE4A0AB0EE0A
:1028D000691AFFF7EAFE85ED000AC5ED010A85EDEC
:1028E000021AB0EE490AF0EE680AB0EE481A1C4827
:1028F000FFF756FC86ED000AC6ED010A86ED021AC6
:10290000184BD3ED004A95ED003AD5ED013A95ED1F
:10291000024AD4ED001A94ED012AD4ED022A12489D
:10292000FFF742F913B0BDEC068BBDE8F08300BFA2
:102930007C0300208803002078030020E02E6542FD
:102940006C0300201616D13D6003002020040020F7
:10295000540300204004010804040108C8030108CE
:102960009403002008000020AC0300202804010884
:1029700034040108EC030108F8030108BC03010852
:1029800008B5024800F0B8F808BD00BF20040020D8
:102990007047704700B587B0024600238DF81730A6
:1029A0000A230293012301930DF1170100911C21C9
:1029B000034804F001F89DF8170007B05DF804FB28
:1029C0000003002000B587B002468DF817100A23D7
:1029D0000293012301930DF1170100911C2103487B
:1029E00003F038FF07B05DF804FB00BF00030020D0
:1029F00000B585B00A23029301920091012302469B
:102A00001C21034803F0D8FF05B05DF804FB00BFAC
:102A10000003002008B503F0A1FB08BD10B44FF07F
:102A2000E0235C6900EBC0004FEAC00C9B69002109
:102A300004E0E01A02441144614509D21A464FF0FD
:102A4000E0239B699A42FAD0F3D9D21A1144F3E7F2
:102A50005DF8044B7047000008B501224021024890
:102A600003F037F808BD00BF0018024008B5002287
:102A70004021024803F02DF808BD00BF00180240B5
:102A800070B5FFF785FFFFF784FFFFF7EFFF3220F8
:102A9000FFF7C0FFFFF7E0FF3220FFF7BBFF00208A
:102AA000FFF778FF102823D10024032C1ED8114AE9
:102AB00004EB4403D118D55C4E7831462846FFF725
:102AC00081FF9620FFF7AAFF2846FFF763FF054620
:102AD0009620FFF7A3FFAE4202D10134E4B2E4E74F
:102AE00004EB4404034B2344987800E0002070BDBD
:102AF0004020FCE76404010810B582B004460622B9
:102B000069460320FFF774FF9DF801301B021BB2DA
:102B10009DF80020134307EE903AF8EEE77A9FED18
:102B2000137A67EE877AC4ED007A9DF803301B02B2
:102B30001BB29DF80220134307EE903AF8EEE77AB5
:102B400067EE877AC4ED017A9DF805301B021BB24F
:102B50009DF80420134307EE903AF8EEE77A67EE0B
:102B6000877AC4ED027A02B010BD00BF9A99993EEF
:102B700010B5374B1B68092B16D0354B1B680A2B39
:102B800018D0334B1B680D2B1AD0314B1B68102B00
:102B900035D0304B1B68FF2B25D0802B3CD02C4BE5
:102BA0001B680E2B45D010BD2B4B01221A6000F084
:102BB00077F9E2E7284B00221A6000F095F9E0E788
:102BC000244B1B68802BE0D1244B1B687F2BDCD16E
:102BD0000024234B1C6000F03DF9224B01221A60B7
:102BE000214B1C60D1E7214A1268FF2AD5D11B4A2C
:102BF0001268FF2AD1D11E4A1268FF2ACDD10022C5
:102C0000154B1A60012316490B6016490A60164AD3
:102C1000136000F02BF9C2E7144B1B68802BBED168
:102C20000E4B1B68802BBAD1114B1B68802BB6D181
:102C3000E5E70023084A1360094A1360094A136054
:102C4000094A136000F074F900F01CF9ABE700BF0B
:102C5000C0060020CC06002020000020C80600206E
:102C6000040500200805002000050020D0060020F3
:102C7000C4060020184B1B68052B0ED0072B1CD058
:102C800013B9164B00221A60154B1A68154B03EB4B
:102C900082031A68144B1A607047104A1268002A9F
:102CA000ECD10F4A1268012A03DD0C4A01211160A0
:102CB000E4E701320A490A60F7E7084A1268002A85
:102CC000DED1074A1268002A02DD013A04490A608F
:102CD000024A01211160D3E7C00600202C04002025
:102CE000340400200C0000203004002008B501F05E
:102CF00093F8FFF7BFFFFFF73BFF4B4B1B682BB968
:102D00004A4B1B68012B02D0012B46D008BD484A14
:102D10001268002AF8D1474A1268802A2BDC4649FB
:102D200091ED007ADFED457A27EE277A803A07EEBB
:102D3000902AF8EEE77A67EE877A414AC2ED007A88
:102D40003F4A92ED007A3C4AD2ED007AB4EEE77A3F
:102D5000F1EE10FA02DD3A4AC2ED007AF1EE677A3E
:102D6000374A92ED007AF4EEC77AF1EE10FACBDD35
:102D7000C2ED007AC8E73049D1ED006ADFED317A63
:102D800086EEA77A803A07EE902AF8EEE77A67EEA9
:102D9000877A2B4AC2ED007AD2E7254B1B68002BBD
:102DA000B4D1294B1B687F2B2BDC284AD2ED006A5B
:102DB000DFED247A86EEA77A7F3B07EE903AF8EEB5
:102DC000E77A67EE877A224BC3ED007A204B93EDCA
:102DD000007A1E4BD3ED007AB4EEE77AF1EE10FAEA
:102DE00002DD1B4BC3ED007AF1EE677A184B93EDD1
:102DF000007AF4EEC77AF1EE10FA87DDC3ED007ABF
:102E000084E7124A92ED007ADFED0C7A27EE277AFA
:102E10007F3B07EE903AF8EEE77A67EE877A0C4B45
:102E2000C3ED007AD2E700BF200000200805002093
:102E300004050020CC06002030040020000000BC67
:102E4000FC0400200000FEC2C8060020180000207C
:102E5000F8040020044B1B6800225A634EF66021E0
:102E60009963DA63704700BF40080020044B1B6879
:102E700000225A639A634EF66022DA63704700BFFD
:102E800040080020054B1B684DF650425A6342F241
:102E9000B8429A6348F2F072DA6370474008002043
:102EA00070B5104D2B684EF660265E6300249C635F
:102EB000DC63642003F052F92B685C639C63DC6381
:102EC000642003F04BF92B685E639C63DC63642031
:102ED00003F044F92B685C639C63DC63642003F0BB
:102EE0003DF970BD4008002070B5104D2B680024DE
:102EF0005C639C634EF66026DE63642003F02EF96B
:102F00002B685C639C63DC63642003F027F92B6807
:102F10005C639C63DE63642003F020F92B685C63D0
:102F20009C63DC63642003F019F970BD4008002045
:102F30002DE9F041134D2B684DF65048C3F834800D
:102F400042F2B8479F6348F2F076DE63642003F0F4
:102F500005F92B6800245C639C63DC63642003F048
:102F6000FDF82B68C3F834809F63DE63642003F0B0
:102F7000F5F82B685C639C63DC63642003F0EEF877
:102F8000BDE8F0814008002070470000FFEE007AA5
:102F9000B4EEE70AF1EE10FA0DD9F7EE007AB4EECE
:102FA000E70AF1EE10FA02DB9FED040A704708B55C
:102FB0000AF0DAF908BD9FED020A7047DB0FC93F3E
:102FC000DB0FC9BF00B52DED068B8FB0B0EE409A78
:102FD000F0EE609AB0EE418AF0EE618A8DED040A5F
:102FE000CDED050A8DED061ACDED071A61EE017AD9
:102FF000B6EE00AA3AEE67AA20EE200A61EE217A28
:1030000060EEA00A7AEE600A30EE270A0AF0D8F9DC
:10301000DFED1AAA20EE2A0A8DED080A28EE090A29
:1030200069EEA87A30EE670A30EE000AFFF7AEFFCD
:1030300020EE2A0A8DED090A29EE280A28EE298AAF
:1030400068EEA88A7AEE680A30EE080A0AF0B8F943
:1030500020EE2A0A8DED0A0A08AB93E807000EABB2
:1030600003E907009DED0B0ADDED0C0A9DED0D1A3D
:103070000FB0BDEC068B5DF804FB00BFE02E65428F
:103080002DE9F0412DED0A8BA8B0A34C2046FEF7A8
:10309000DDFF8DED240ACDED250A8DED261ACDED4F
:1030A000271AFFF78FFF8DED210ACDED220A8DED56
:1030B000231A2046FEF7DBFF8DED1E0ACDED1F0A19
:1030C0008DED201A954BB3F9022000EE102AB3F9CA
:1030D00016305B4200EE903A914C92492046F8EE51
:1030E000E00AB8EEC00A00F065FB9FED8F9ADDEDB7
:1030F00022AA6AEE89AADDED219A69EE899ADDEDB0
:10310000237A67EE897A17EE900AFDF7FDF941EC14
:10311000180BB0EE480AF0EE680A0AF0C5F951EC57
:10312000100BFDF741FD0AEE100AB0EE480AF0EE72
:10313000680A0AF039FA51EC100BFDF735FD08EE7C
:10314000100A1AEE900AFDF7DFF941EC1C0BB0EE05
:103150004C0AF0EE6C0A0AF0A7F951EC100BFDF7DF
:1031600023FD08EE900AB0EE4C0AF0EE6C0A0AF06D
:103170001BFA51EC100BFDF717FD0BEE100A19EEC0
:10318000900AFDF7C1F941EC1C0BB0EE4C0AF0EED1
:103190006C0A0AF089F951EC100BFDF705FD0AEEF7
:1031A000900AB0EE4C0AF0EE6C0A0AF0FDF951EC10
:1031B000100BFDF7F9FC07EE100A5C4BD3ED007A1B
:1031C000F8EEE77AD4ED009A67EEA97A9FED586A97
:1031D000C7EE866A6AEE0B7A67EE877A28EE2A6A6D
:1031E00077EEC67A67EEA67A524B93ED006A77EED9
:1031F000867AC3ED007A28EE0B8A28EE078A2AEE3B
:103200002AAA38EE0A8A28EE268A4B4B93ED006AEA
:1032100038EE068A83ED008A68EE878A68EEA68A11
:10322000464B93ED007A78EE878AC3ED008A444BD3
:1032300093ED00AA2AEE09AAD3ED01AA6AEE89AAA3
:1032400093ED027A27EE099A3E4B1E685F68D3F829
:10325000088017EE900AFDF757F904460D464046E0
:10326000FDF752F9CDE91C013846FDF74DF9CDE9DE
:103270001A013046FDF748F9CDE9180119EE100A98
:10328000FDF742F9CDE916011AEE900AFDF73CF977
:10329000CDE914011AEE100AFDF736F9CDE9120155
:1032A0009FED1BAB8DED10AB19EE900AFDF72CF9DD
:1032B000CDE90E018DED0CAB2498FDF725F9CDE994
:1032C0000A012798FDF720F9CDE908012698FDF7B6
:1032D0001BF9CDE906012598FDF716F9CDE90401A2
:1032E00018EE900AFDF710F9CDE9020118EE100A68
:1032F000FDF70AF9CDE9000122462B46124801F0FC
:10330000C7FB28B0BDEC0A8BBDE8F081AFF30080AD
:103310000000000000000000AC0300206402002058
:10332000700400206C04002035FA8E3C1C00002044
:1033300000007A4468040020640400206004002037
:103340006C0300205403002070040108124B1B681A
:10335000012B00D0704710B582B0044603460F4AD7
:1033600013210F4805F08CFE01AB6A460D4920463B
:1033700005F0DEFE022807D10B4B009A1A600B4BBA
:10338000019A1A6002B010BD2346094A1321094868
:1033900005F076FEF6E700BF20000020A404010837
:1033A00038040020A8040108FC040020F8040020D0
:1033B000B80401084C04002072B6FEE700B595B0D1
:1033C0003022002108A806F08BFE0023039304930B
:1033D0000593069307930193204A116C41F08051A5
:1033E0001164126C02F080520192019A02931C4BFC
:1033F0001A6842F480421A601B6803F48043029307
:10340000029B012308934FF48033099302230E9308
:103410004FF480020F9206221092A822119212936A
:103420000423139308A801F031FF98B90F230393E5
:1034300002230493002305934FF4A05306934FF403
:1034400080530793052103A802F070F920B915B045
:103450005DF804FBFFF7B0FFFFF7AEFF0038024056
:103460000070004000B583B002F04CFEFFF7A6FFED
:10347000FEF73CFFFDF7F6FFFDF72CFFFDF74AFFD7
:1034800001F07AF900F0DAFE00F04EFF00F012FFD2
:1034900001F04EF801F0C8F8FEF7E0FF00F0E0FCA4
:1034A00001F084F901F0A6FA01F040F96421224804
:1034B00000F02EFE214B1978214800F029FE05214D
:1034C000204800F025FE204BD3ED007A9FED1F7AB7
:1034D00067EE877AFCEEE77ACDED017A9DF804106D
:1034E0001B4800F015FE0A211A4800F011FE1A4C84
:1034F00040221A49204604F019FF2268D36843F09D
:103500001003D36001E0FFF7EFFC154B1B68002BA5
:10351000F9D100F047FE134B1B78002BF5D0114B6F
:1035200000221A70104C2046FFF710FF21460F486A
:1035300001F0AEFAE9E700BF892F00081C00002067
:10354000813000080D3700080800002000007A4490
:103550003D270008ED2C0008800A0020B804002058
:103560002C0700207404002078040020CC040108FB
:1035700008B52DED048B464B1B68012B0DD01BB9F4
:10358000444A1268012A0BD03BB9424B1B6823B94D
:103590000023414A1360414A1360BDEC048B08BD0F
:1035A0003F4B93ED008A38EE088A3E4BD3ED009AEC
:1035B0003D4BD3ED007A69EEA79A78EE697A3B4BE2
:1035C000D3ED008A78EEA88AC7EEA87A17EE900AA3
:1035D000FCF79AFF2AA3D3E90023FCF7EDFF2AA307
:1035E000D3E90023FCF7E8FFFDF7DEFA09EE100A45
:1035F000294B186038EE298AC8EE287A17EE900A0F
:10360000FCF782FF1EA3D3E90023FCF7D5FF1EA31E
:10361000D3E90023FCF7D0FFFDF7C6FA07EE900AC6
:103620001E4B18609FED227AB4EEC79AF1EE10FAA5
:1036300002DD194B83ED007A174BD3ED006A9FED45
:103640001D7AF4EEC76AF1EE10FA01D583ED007A27
:103650009FED177AF4EEC77AF1EE10FA02DD0F4B08
:1036600083ED007A0D4B93ED007ADFED127AB4EE24
:10367000E77AF1EE10FA90D5C3ED007A8DE700BF3E
:103680009A9999999919234033333333333333401B
:103690000405002008050020100500200C0500206E
:1036A000FC040020F8040020280000202400002052
:1036B00000409C4600409CC670B584B000251BE0CD
:1036C00068230F4C03FB0544204600F09DF9E66D8E
:1036D0009FED0C0A002202924FF47A73019300923C
:1036E000F0EE401A9FED081AF2EE040A43F6982213
:1036F00001212046B0470135032DE1DD04B070BD46
:1037000014050020000000000000C84210B5244B42
:103710001C6804B110BDFFF72BFF224B1A68224B27
:103720005A60DA66214AD2ED007AF1EE677AC3ED8B
:10373000357AC3ED4F7A11E01B48682303FB040080
:10374000416E04EB84035A00194B1344B3F9023061
:1037500000EE103AB8EEC00A88470134032CEBDDC6
:10376000114BD3ED0C7A93ED267AD3ED406A93EDAD
:103770005A6ABDEEC66AFDEEE66ABDEEC77AFDEE98
:10378000E77A16EE103A1BB216EE902A12B217EE36
:10379000101A09B217EE900A00B2FDF771FDB9E7F1
:1037A0000005002010050020140500200C05002055
:1037B00064020020F8B52DED028B05460C46B3EEF1
:1037C000037AC0EE076ADFED1B7A86EEA78AC0EEA9
:1037D000876AC6EEA78ADFED187A28EE278A68EE98
:1037E000A78A18EE100AFCF78FFE0022134BFCF795
:1037F000E3FE06460F4618EE900AFCF785FE00220F
:103800000E4BFCF7D9FE02460B4630463946FCF714
:103810001DFDFDF7C9F92860B1EE488A38EE088A27
:1038200078EEA88A38EE288A84ED008ABDEC028BF7
:10383000F8BD00BFCDCC1841CDCCCC3D0000E03F61
:1038400007EE902A07EE103A0170BDF8003006EE40
:10385000903AF8EE666AC0ED126A80ED110AB8EE91
:10386000477A80ED107AF8EE677AC0ED0F7ABDF9ED
:10387000043007EE903AF8EEE77AC0ED137ABDF91E
:10388000083007EE903AF8EEE77AC0ED017AC0ED25
:10389000030A80ED041AC0ED051A00230363704784
:1038A00080ED030AC0ED040A80ED051A70470000A0
:1038B0002DE9F8432DED028B0446F0EE408A036DAE
:1038C000436502F045FC2065636DC01AC5B284F8FB
:1038D0005850C4ED068A94ED018A38EE688A84ED6A
:1038E000078AB5EEC08AF1EE10FA73DDF0EE487A81
:1038F00094ED117AB4EEE77AF1EE10FA64D5D4EDD6
:10390000038A68EE288AC4ED098AA06AFCF7FCFDE8
:1039100006460F46D4ED047A68EE277A17EE900A31
:10392000FCF7F2FD8046894694ED0E7AD4ED0C7AD0
:1039300077EE677A17EE900AFCF7E6FD30A3D3E93D
:103940000023FCF739FE02460B4640464946FCF789
:103950007BFC804689462846FCF7C4FD42464B4620
:10396000FCF72AFE0022244BFCF750FF02460B46D0
:1039700030463946FCF76AFCFDF716F907EE100AE7
:10398000A062D4ED056AD4ED087A38EE678A66EE57
:10399000886A07EE905AF8EEE77ADFED185A87EE5C
:1039A000A56AC6EE867AC4ED0B7A78EE878A77EE42
:1039B000A87AC4ED0E7A94ED0F7AF4EEC77AF1EEA0
:1039C00010FA0ADD84ED0C7A94ED0C0ABDEC028B42
:1039D000BDE8F883F1EE487A8AE7B1EE477AF4EE73
:1039E000C77AF1EE10FA02D584ED0C7AECE7C4ED5B
:1039F0000C7AE9E7AFF3008000408F4000007A4482
:103A0000A2923A014D84FF3F034BC365034B03660B
:103A1000034B4366704700BF41380008A1380008D7
:103A2000B138000830B583B005460123ADF8063043
:103A3000274A00215170ADF806300DE000224FF406
:103A40000041244802F045F815E0BDF806309BB26D
:103A50005B009BB2ADF80630BDF806309BB2FF2B81
:103A600031D8BDF806301D42E8D001224FF40041A4
:103A7000184802F02EF8174C01224FF4005120464E
:103A800002F027F80A2000F09BFF00224FF40051BB
:103A9000204602F01EF80A2000F092FF01224FF4A7
:103AA0000051204602F015F84FF48041204602F004
:103AB00009F80028C9D0BDF8062092B204494B7815
:103AC00013434B70C1E7102000F07AFF03B030BD04
:103AD000B40600200004024010B582B000228DF828
:103AE00007200123ADF804304FF48051304801F035
:103AF000F0FF304C2078FFF795FF6078FFF792FFDA
:103B000002238DF8073042E0BDF804309BB25B0021
:103B10009BB2ADF80430BDF804309BB2FF2B2DD81A
:103B2000234C01224FF40051204601F0D2FF0A201D
:103B300000F046FF00224FF40051204601F0C9FF7B
:103B40000A2000F03DFF01224FF40051204601F011
:103B5000C0FF4FF48041204601F0B4FF0028D3D0CD
:103B6000BDF8041089B29DF80730DBB21248C25C80
:103B70009DF80730DBB20A43C254C5E7102000F0BD
:103B80001FFF9DF807300133DBB28DF807309DF839
:103B90000730DBB2082B03D80123ADF80430BAE7B5
:103BA00001224FF48051024801F093FF02B010BD92
:103BB000000402404C000020B4060020014B185CB9
:103BC000704700BFB4060020002304E0034A002130
:103BD000D1540133DBB2082BF8D97047B40600206A
:103BE00008B5FFF7F1FFFFF777FF0D4B1A79D9788A
:103BF00041EA02210B4B198000230F2B0ED80A4AF1
:103C000032F81320013A41FA02F212F0010F02D009
:103C10000133DBB2F1E70133D8B200E0002008BD88
:103C2000B4060020BE0600202C00002010B5114C68
:103C300000224FF48051204601F04BFF102000F08D
:103C4000BFFE0120FFF7EEFE4220FFF7EBFE002053
:103C5000FFF7E8FE0020FFF7E5FE0020FFF7E2FE99
:103C600001224FF48051204601F033FF102000F074
:103C7000A7FE10BD0004024010B5174C00224FF4FF
:103C80008051204601F025FF102000F099FE012010
:103C9000FFF7C8FE4320FFF7C5FE0020FFF7C2FE76
:103CA0000120FFF7BFFE0020FFF7BCFE0020FFF75A
:103CB000B9FE0020FFF7B6FE0020FFF7B3FE00209C
:103CC000FFF7B0FE01224FF48051204601F001FFC2
:103CD000102000F075FE10BD0004024010B5164C17
:103CE00000224FF48051204601F0F3FE0120FFF73F
:103CF00099FE4420FFF796FE0020FFF793FE012077
:103D0000FFF790FE0320FFF78DFE0020FFF78AFEED
:103D10000020FFF787FE0020FFF784FE0020FFF75A
:103D200081FE01224FF48051204601F0D2FE102086
:103D300000F046FE10BD00BF0004024010B5114C5B
:103D400000224FF48051204601F0C3FE102000F005
:103D500037FE0120FFF766FE4D20FFF763FE0020CF
:103D6000FFF760FE0020FFF75DFE0120FFF75AFE1F
:103D700001224FF48051204601F0ABFE102000F0EC
:103D80001FFE10BD0004024010B5174C00224FF476
:103D90008051204601F09DFE102000F011FE012010
:103DA000FFF740FE4320FFF73DFE0020FFF73AFEFD
:103DB0000020FFF737FE5A20FFF734FE5A20FFF7A6
:103DC00031FE5A20FFF72EFE5A20FFF72BFE5A2015
:103DD000FFF728FE01224FF48051204601F079FEC2
:103DE000102000F0EDFD10BD0004024008B5094BA5
:103DF00000221A60FFF71AFFFFF718FFFFF716FF00
:103E0000FFF73AFFFFF76AFFFFF798FFFFF7BCFFE6
:103E100008BD00BF0805002008B50720FFF7CEFE4B
:103E20000A4B18600820FFF7C9FE094B18600520EF
:103E3000FFF7C4FE074B18600620FFF7BFFE064BD6
:103E40001860FFF7CDFE054B186008BDD0060020B6
:103E5000CC060020C8060020C4060020C0060020B2
:103E600008B50F480F4B03604FF482734360002383
:103E70008360C36002220261012242614FF400723A
:103E800082613822C2610362436283620A23C36291
:103E900002F0B2FF00B908BDFFF78EFAFBE700BFE2
:103EA000D406002000300140F0B589B00023039310
:103EB000049305930693079302681E4B9A4201D020
:103EC00009B0F0BD0024009403F584335A6C42F429
:103ED00080525A645A6C02F480520092009A019403
:103EE0001A6B42F002021A631A6B02F0020201928C
:103EF000019A02941A6B42F001021A631B6B03F0E1
:103F000001030293029B18230393022704970326BD
:103F100006960525079503A9074801F0DDFC8023D7
:103F20000393049705940696079503A9034801F0A7
:103F3000D3FCC5E70030014000040240000002400D
:103F400082B0002100910B4B5A6C42F480425A64BB
:103F50005A6C02F480420092009A01911A6C42F06D
:103F600080521A641B6C03F080530193019B02B0D2
:103F7000704700BF00380240FEE7FEE7FEE7FEE7BD
:103F8000FEE770477047704708B502F0D5F808BDE6
:103F900008B5012001F0A4FD014B01221A6008BD03
:103FA0002C07002008B5082001F09AFDFEF7E8FC78
:103FB00008BD000008B5024801F040F808BD00BF88
:103FC000D802002008B5034803F0B2F9024803F014
:103FD000AFF908BDD0080020B007002008B502489E
:103FE00003F0A6F908BD00BF8808002008B5034803
:103FF00003F09EF900F0AEF808BD00BFF8070020FE
:1040000008B5024801F0EEFE08BD00BF78090020A7
:1040100008B5024801F0E6FE08BD00BF18090020FF
:1040200008B5024801F0DEFE08BD00BFD809002037
:1040300008B5024803F08AFF08BD00BF380A002017
:104040000120704708B506F09BF8162303604FF077
:10405000FF3008BD08B54FF0FF31FFF7F3FFFEE773
:1040600070B50C461646002506E0AFF300802146E9
:1040700001F8010B01350C46B542F6DB304670BD48
:1040800070B50C461646002504E014F8010BAFF39A
:1040900000800135B542F8DB304670BD4FF0FF308F
:1040A00070474FF400534B60002070470120704769
:1040B0000020704710B503460C4A0D490D480068B2
:1040C00040B10C4800680344521A934206D8094A8A
:1040D000136010BD0748084C0460F2E706F050F882
:1040E0000C2303604FF0FF30F3E700BF0000022015
:1040F0000004000030070020980D0020034AD2F889
:10410000883043F47003C2F88830704700ED00E057
:1041100010B50E4A13780133DBB213700C4C03EB6D
:10412000430E04EB8E0290604FF0000C82F801C049
:10413000D17082F804C0012104F82E1082F806C064
:1041400082F805C082F802C0104610BDAD070020FD
:1041500034070020104A137801331370012301E063
:104160000133DBB20D4A12789A4214D303EB4301B8
:104170008A000B498A5C002AF2D003EB43029100CB
:10418000074A0A441279002AEAD08C46044961445D
:10419000013A0A71E4E77047AC070020AD07002040
:1041A00034070020F8B5012413E0204E6F0005EB22
:1041B0004502930033441E4A12785A7101225A7004
:1041C0009B6898477B199A0016440023737001344A
:1041D000E4B2184B1B78A34226D3254604EB4402D5
:1041E0009300124AD35C002BF1D004EB44039A00F5
:1041F0000E4B13445B78002BE9D10C4B13441B7915
:10420000002BE4D1094B1344DA781A715979084A22
:104210001278521AD2B29A719B78002BC5D02146DF
:10422000054800F035FCC0E7F8BD00BF34070020AA
:10423000AC070020AD070020DC04010800B587B002
:10424000002302930393049305930093019317486B
:10425000174A026044F29F12426083600922C260E2
:1042600003614361836103F07FF9A8B94FF4805380
:10427000029302A90D4803F082FA80B9002300934B
:1042800001936946094803F08BFB58B9074803F0CE
:1042900005F807B05DF804FBFFF78EF8E6E7FFF7D7
:1042A0008BF8EBE7FFF788F8F0E700BFD0080020B5
:1042B0000000014000B587B00023029303930493EC
:1042C0000593009301931648164A026044F29F1228
:1042D000426083600922C2600361836103F044F994
:1042E000A8B94FF48053029302A90D4803F047FA8E
:1042F00080B90023009301936946094803F050FBFD
:1043000058B9074802F0CAFF07B05DF804FBFFF791
:1043100053F8E6E7FFF750F8EBE7FFF74DF8F0E763
:10432000880800200008004000B587B000230293F1
:10433000039304930593009301931748174A02606F
:1043400044F29F12426083600922C26003614361AC
:10435000836103F009F9A8B94FF48053029302A9CD
:104360000D4803F00CFA80B90023009301936946CD
:10437000094803F015FB58B9074802F08FFF07B052
:104380005DF804FBFFF718F8E6E7FFF715F8EBE731
:10439000FFF712F8F0E700BFF80700200004014023
:1043A00000B587B00368374A93420ED0364A93422D
:1043B0001FD0364A934230D0354A93423AD0354ADC
:1043C00093424BD007B05DF804FB00210191324BC2
:1043D0005A6C42F001025A645B6C03F001030193D2
:1043E000019B0A46192001F03FFE192001F04CFE06
:1043F000E8E700210291284B1A6C42F004021A648B
:104400001B6C03F004030293029B0A461E2001F07A
:104410002BFE1E2001F038FED4E7002303931E4B31
:104420001A6C42F008021A641B6C03F00803039331
:10443000039BC7E700210491174B5A6C42F002021C
:104440005A645B6C03F002030493049B0A462C201D
:1044500001F00AFE2C2001F017FEB3E700210591C0
:104460000D4B5A6C42F400325A645B6C03F4003317
:104470000593059B0A46192001F0F6FD192001F06D
:1044800003FE9FE70000014000080040000C0040D0
:1044900000040140004401400038024000B589B0EA
:1044A00000230393049305930693079303681B4A21
:1044B000934205D01A4A934219D009B05DF804FB23
:1044C00000230193174B1A6B42F080021A631B6B97
:1044D00003F080030193019B4FF4E0530393022305
:1044E0000493079303A9104801F0F6F9E5E70023C8
:1044F00002930C4B1A6B42F020021A631B6B03F001
:1045000020030293029B402303930223049303237B
:10451000079303A9054801F0DFF9CEE7000C00403E
:104520000044014000380240001C024000140240D8
:1045300010B58EB000230A930B930C930D93089340
:1045400009930193029303930493059306930793AE
:104550003348344A0260436083604FF6FF72C260A2
:104560000361836103F000F8002843D14FF48053C6
:104570000A930AA92A4803F002F900283DD12848E5
:1045800003F01EF800283BD100230893099308A9E3
:10459000234803F005FA002835D160230193002257
:1045A00002920392059201A91D4803F06DF868BBC1
:1045B00004220DEB02011A4803F066F848BB0822FA
:1045C00001A9174803F060F830BB154C204602F0F3
:1045D00065FE0021204603F061F90421204603F026
:1045E0005DF90821204603F059F92046FFF756FFF0
:1045F0000EB010BDFEF7E0FEB8E7FEF7DDFEBEE749
:10460000FEF7DAFEC0E7FEF7D7FEC6E7FEF7D4FEF8
:10461000CEE7FEF7D1FED2E7FEF7CEFED5E700BF2C
:1046200040080020000C004000B589B00023019331
:104630000293039304930593069307931548164A30
:1046400002604360836041F28732C260036183612C
:1046500002F08AFFA0B90F4802F0B2FF98B96023B8
:104660000193002202920392059201A9094803F0E6
:104670000BF858B90748FFF711FF09B05DF804FBC4
:10468000FEF79AFEE7E7FEF797FEE8E7FEF794FEEF
:10469000F0E700BFB00700200044014010B582B031
:1046A000174B1B681A6812F0100F04D1144803F05E
:1046B0004DFC02B010BD002201921A6801925B68A5
:1046C0000193019B0E4803F01BFB0E4B1B685C68BB
:1046D000A4B2C4F14004A4B20CB1402C05D94022CC
:1046E0000949074803F022FEE0E722460649074849
:1046F00005F088FD064B1C80064B01221A70EEE780
:10470000800A002078090020B804002078040020E6
:10471000760400207404002008B5034B01221A70AF
:10472000FEF798FB08BD00BF7404002038B5114C9B
:10473000002584F8505084F8515084F87850502265
:104740002946204605F0CCFCC4F85250C4F8565017
:10475000C4F85950C4F85D50C4F861506566A4F8B7
:104760006850C4F86A50C4F86E50C4F87250A4F887
:10477000765038BDC80A002008B50A480A4B0360C5
:104780004FF4E133436000238360C36003610C2274
:1047900042618361C36103F041FA00B908BDFEF7CD
:1047A0000BFEFBE7800A00200010014008B50A4814
:1047B0000A4B03604FF4E133436000238360C3601E
:1047C00003610C2242618361C36103F027FA00B9DF
:1047D00008BDFEF7F1FDFBE7380A00200014014098
:1047E0002DE9F0418AB00446002305930693079310
:1047F000089309930368664A934205D0654A934239
:104800007DD00AB0BDE8F08100250095624B5A6C5E
:1048100042F010025A645A6C02F010020092009AA0
:1048200001951A6B42F002021A631A6B02F002023F
:104830000192019A02951A6B42F001021A631B6BF6
:1048400003F001030293029B802305934FF00208BB
:10485000CDF81880032708970726099605A94F4821
:1048600001F03AF84FF400730593CDF818800795DE
:104870000897099605A94A4801F02EF849484A4B7D
:1048800003604FF00063436040238360C5604FF4D2
:104890008063036145618561C5614FF40033036244
:1048A000456201F0A7F920BB3E4BA3639C633F48E0
:1048B0003F4B03604FF00063436000238360C3609D
:1048C0004FF48062026143618361C3614FF44032FF
:1048D0000262436201F08EF970B9344BE3639C636A
:1048E00000221146252001F0BFFB252001F0CCFB62
:1048F00087E7FEF761FDD7E7FEF75EFDEDE70025F0
:104900000395254B5A6C42F020025A645A6C02F00F
:1049100020020392039A04951A6B42F040021A6334
:104920001B6B03F040030493049B4FF484430593F3
:1049300002230693032308930823099305A91D481E
:1049400000F0CAFF1C481D4B03604FF0206343601A
:1049500040238360C5604FF48063036145618561D6
:10496000C5614FF440330362456201F043F958B921
:10497000114BA3639C6300221146472001F074FB96
:10498000472001F081FB3CE7FEF716FDF0E700BF92
:1049900000100140001401400038024000040240B1
:1049A00000000240D8090020B864024078090020C5
:1049B000406402400018024018090020A064024030
:1049C00010B5044600F062FF084AA2FB0020800CEC
:1049D00001F05EFB601E01F0C1FB00F057FF044BCD
:1049E000A3FB0030800901F053FB10BD83DE1B43A5
:1049F000D34D621030B52DED028B87B0FCF7D0FBA4
:104A0000FEF75AFEFFF7F2F9FEF73AF8FCF7A0FAC4
:104A10000028FBD1194C2046FDF7AEF8184DB7EE33
:104A2000008A95ED007AC8EE077AFCEEE77A17EE79
:104A3000901A1448FDF79AFB2046FDF79DF80123D4
:104A40008DF800304FF07C5301930F4B02930F4BC6
:104A50000393049395ED007AC8EE077AB1EE047AD9
:104A600067EE877AFCEEE77ACDED057A6946204657
:104A7000FDF708F807B0BDEC028B30BDAC03002099
:104A800008000020940300200000FA4400002041A8
:104A90000FB410B502AA52F8041B084B1A60084C58
:104AA000204604F071FC82B2064B1A80214606486B
:104AB00003F0E4F8BDE8104004B07047440C002057
:104AC000440B0020420B0020800A0020002800F048
:104AD000A18038B5044690F82030D3B1226813681D
:104AE00043F00103136001F033FB054623685A6865
:104AF00012F0010F10D101F02BFB401B0A28F5D951
:104B0000636A43F400336362052384F82030012094
:104B100038BDFCF71FFCE1E71A6822F002021A60B8
:104B200001F016FB054623685A6812F0020F0DD0FB
:104B300001F00EFB401B0A28F5D9636A43F40033E9
:104B40006362052384F820300120E1E7227E012AF8
:104B50003DD01A6822F080021A60637E012B3BD0A0
:104B60002268136823F040031360A37E012B39D021
:104B70002268136823F020031360E37E012B37D0F3
:104B80002268136843F010031360237F012B35D094
:104B90002268136823F008031360637F012B33D06E
:104BA0002268136823F004031360A368E2681343C8
:104BB00022691343626913436268013A216813430F
:104BC000CB6100206062012384F82030A0E71A68DE
:104BD00042F080021A60C0E72268136843F0400385
:104BE0001360C2E72268136843F020031360C4E730
:104BF0002268136823F010031360C6E72268136865
:104C000043F008031360C8E72268136843F0040305
:104C10001360CAE70120704790F82030013BDBB2F7
:104C2000012B05D9436A43F4802343620120704776
:104C300030B5464BD3F8002242F00102C3F80022FF
:104C4000D3F8002222F47C52C3F80022D3F80022C9
:104C5000486A42EA0022C3F800224A6902F01F02B1
:104C6000012000FA02F2D3F81C026FEA020C20EADB
:104C70000200C3F81C02CB69C3B9344BD3F80C0251
:104C80000CEA0000C3F80C028C884869CD6844EA3D
:104C90000544483043F830408C68088840EA0440B6
:104CA0004C6904F1480E03EBCE035860CB69012B2D
:104CB0001ED08B69002B33D12448D0F804320CEA83
:104CC0000303C0F804320B698BBB2048D0F81432C0
:104CD0000CEA0303C0F814320B6A012B2ED01B4AD6
:104CE000D2F8003223F00103C2F80032002030BDB8
:104CF000164BD3F80C021043C3F80C028C88486999
:104D00000D6844EA0544483043F8304088894C69CE
:104D10008D6840EA0540483403EBC4035860C8E797
:104D20000A48D0F804321343C0F80432CBE70748EE
:104D3000D0F814321343C0F81432CDE70349D1F848
:104D40001C321343C1F81C32C9E700BF00640040A5
:104D500070B5044690F82050EDB2012D06D0436A9C
:104D600043F4002343620125284670BD022380F8E6
:104D700020300268136823F00103136001F0E8F9A2
:104D8000064623685B6813F0010F0CD001F0E0F9D0
:104D9000831B0A2BF5D9636A43F40033636205234E
:104DA00084F82030E0E700256562DDE730B590F853
:104DB00020C00468A4680CF1FF3C5FFA8CFCBCF1D5
:104DC000010F62D814F0E05F59D0C4F3016C0124E4
:104DD00004FA0CF41C608B68002B3DD10D68CB6885
:104DE000046843EA45550CF118031B01E5500368BC
:104DF0000C690CF1180E03EB0E135C600B7D012B9C
:104E000035D0D17993791B0443EA0163517943EAA0
:104E1000012314790168234301EB0C11C1F88C3193
:104E2000D17893781B0443EA0163517843EA012364
:104E3000117802680B4302EB0C12C2F88831026849
:104E40000CF1180C4FEA0C1C52F80C3043F0010323
:104E500042F80C3000201DE04C6843EAC403CC68E3
:104E600023430CF11804240105682B51BFE70368A4
:104E700003EB0E13596841F480715960C1E7436A2E
:104E800043F400134362012004E0436A43F48023A7
:104E90004362012030BD90F820C00CF1FF3C5FFA66
:104EA0008CFCBCF1010F00F2A58030B451B904684C
:104EB000E46814F0030F10D1436A43F40013436213
:104EC00001207EE00468246914F0030F05D1436AD1
:104ED00043F400134362012073E0056801F11B04F1
:104EE00024012C5904F004049460002C6BD1056853
:104EF00001F11B0424012C59640D1460046801F1B4
:104F00001B0C4FEA0C1C54F80C4004F00204D46053
:104F10000468A444DCF8045015F0080F5BD00824A2
:104F20001461046801F11B0C04EB0C146468C4F3F5
:104F300007249461046804EB0C146468240C546125
:104F4000026802EB0112D2F8B8211A70026802EB73
:104F50000112D2F8B821C2F307225A70026802EB9C
:104F60000112D2F8B821C2F307429A70026802EB2C
:104F70000112D2F8B821120EDA70026802EB0112A7
:104F8000D2F8BC211A71026802EB0112D2F8BC21DE
:104F9000C2F307225A71026802EB0112D2F8BC2157
:104FA000C2F307429A71026802EB0112D2F8BC21E7
:104FB000120EDA71C1B90268D36843F02003D360DE
:104FC000002030BC7047056801F11B0424012C59F6
:104FD000E408546092E701F11B0504EB05146468D2
:104FE00004F00F0414619CE70268136943F0200386
:104FF0001361E5E7436A43F480234362012070476D
:1050000090F82030013BDBB2012B05D9436A43F411
:105010008023436201207047026853690B43536148
:10502000002070477047704770477047704770475F
:105030007047704770477047704770472DE9F84FC9
:10504000054603685C69D3F804809F68D3F80CA018
:10505000D3F81090D3F818B014F001063BD017F035
:10506000010616D001229A6017F0020F08D117F03E
:10507000040F0CD117F0080606D04FF4805608E054
:10508000FFF7D0FF002604E0FFF7CFFF01E04FF469
:10509000006617F4807F0DD02B684FF480729A6001
:1050A00017F4007F40F0968017F4806F00F0968030
:1050B00046F4005617F4803F0DD02B684FF4803231
:1050C0009A6017F4003F40F0938017F4802F00F0AF
:1050D000938046F4004614F0080F07D01AF0100F22
:1050E00004D046F400762B681022DA6014F0040F26
:1050F00003D01AF0080F40F0898014F0020F05D099
:105100002B68DB6813F0030F40F0878014F0400F2A
:1051100007D019F0100F04D046F480662B681022D7
:105120001A6114F0200F02D019F0080F79D114F091
:10513000100F04D02B681B6913F0030F78D114F4FF
:10514000003F02D018F0100F76D114F4803F02D047
:1051500018F0080F77D114F4004F37D018F0040F6F
:1051600031D014F4807F04D01BF0010F01D046F041
:10517000010614F4007F04D01BF0020F01D046F0AA
:10518000020614F4806F04D01BF0040F01D046F027
:10519000040614F4006F16D01BF0700B13D0BBF193
:1051A000400F66D056D8BBF1200F5CD0BBF1300F5A
:1051B0005CD0BBF1100F01D146F008062A68936954
:1051C00023F0700393612B6804225A60002E56D19D
:1051D000BDE8F88F2846FFF726FF6BE717F4006F4E
:1051E00002D046F4804665E72846FFF71FFF61E7D7
:1051F0002846FFF719FF6EE717F4002F02D046F498
:10520000803668E72846FFF712FF64E72B6808221C
:10521000DA602846FFF70CFF6FE72846FBF7EEFF42
:1052200074E72B6808221A612846FFF703FF7EE720
:105230002846FFF7FEFE82E72B6810225A602846B8
:10524000FFF7F9FE81E72B6808225A602846FFF72E
:10525000F3FE80E7BBF1500F0ED0BBF1600FADD174
:1052600046F48076AAE746F01006A7E746F0200647
:10527000A4E746F04006A1E746F080069EE76B6A89
:1052800033436B622846FFF7D8FEA1E7002800F001
:10529000E08170B582B00446036813F0010F3BD083
:1052A0009F4B9B6803F00C03042B2CD09C4B9B68FA
:1052B00003F00C03082B21D06368B3F5803F4FD077
:1052C000B3F5A02F52D0964B1A6822F480321A60A0
:1052D0001A6822F480221A606368002B50D000F014
:1052E00037FF05468E4B1B6813F4003F14D100F0C6
:1052F0002FFF401B6428F5D90320B1E1884B5B6880
:1053000013F4800FD8D0864B1B6813F4003F03D0F2
:105310006368002B00F09F81236813F0020F54D0C4
:105320007F4B9B6813F00C0F3ED07D4B9B6803F0C6
:105330000C03082B33D0E368002B68D0794B012293
:105340001A6000F005FF0546754B1B6813F0020F4D
:1053500054D100F0FDFE401B0228F5D903207FE167
:105360006F4A136843F480331360B5E76C4B1A68D7
:1053700042F480221A601A6842F480321A60ABE765
:1053800000F0E6FE0546664B1B6813F4003FC3D0F1
:1053900000F0DEFE401B6428F5D9032060E1604B7D
:1053A0005B6813F4800FC6D15D4B1B6813F0020FCE
:1053B00003D0E368012B40F05081594A136823F071
:1053C000F803216943EAC1031360236813F0080F4F
:1053D00042D063696BB3534B0122C3F8802E00F0B7
:1053E000B7FE05464E4B5B6F13F0020F34D100F051
:1053F000AFFE401B0228F5D9032031E1484A13686B
:1054000023F0F803216943EAC1031360DDE7454B4C
:1054100000221A6000F09CFE0546414B1B6813F009
:10542000020FD2D000F094FE401B0228F5D90320D1
:1054300016E13C4B0022C3F8802E00F089FE0546A1
:10544000374B5B6F13F0020F06D000F081FE401B5C
:105450000228F5D9032003E1236813F0040F77D065
:105460002F4B1B6C13F0805F33D1002301932C4B27
:105470001A6C42F080521A641B6C03F08053019343
:10548000019B0125284B1B6813F4807F23D0A36860
:10549000012B34D0052B38D0214B1A6F22F001029A
:1054A0001A671A6F22F004021A67A368002B3DD016
:1054B00000F04EFE06461A4B1B6F13F0020F46D14A
:1054C00000F046FE801B41F288339842F3D9032056
:1054D000C6E00025D6E7144A136843F480731360CE
:1054E00000F036FE0646104B1B6813F4807FCED1C9
:1054F00000F02EFE801B0228F5D90320B0E0084AF8
:10550000136F43F001031367CFE7054B1A6F42F0A7
:1055100004021A671A6F42F001021A67C5E700BF5A
:1055200000380240000047420070004000F010FECA
:105530000646524B1B6F13F0020F08D000F008FE16
:10554000801B41F288339842F3D9032088E0EDB9FB
:10555000A369002B00F08380484A926802F00C0295
:10556000082A51D0022B17D0454B00221A6600F0B2
:10557000EFFD0446414B1B6813F0007F42D000F062
:10558000E7FD001B0228F5D9032069E03B4A136CB4
:1055900023F080531364DBE7394B00221A6600F0D6
:1055A000D7FD0546354B1B6813F0007F06D000F091
:1055B000CFFD401B0228F5D9032051E0E369226AA0
:1055C0001343626A43EA8213A26A5208013A43EA29
:1055D0000243E26A43EA0263284A5360284B0122ED
:1055E0001A6600F0B5FD0446244B1B6813F0007FDB
:1055F00006D100F0ADFD001B0228F5D903202FE0F5
:1056000000202DE000202BE0012B2BD01B4B5B68F2
:1056100003F48001E269914226D103F03F02216A3E
:105620008A4223D1616A47F6C0721A40B2EB811FE9
:105630001ED103F44031A26A5208013AB1EB024F85
:1056400018D103F07063E26AB3EB026F14D100204B
:1056500006E001207047012002E0012000E0002068
:1056600002B070BD0120FBE70120F9E70120F7E758
:105670000120F5E70120F3E70120F1E700380240BF
:105680000000474208B5264B9B6803F00C03042B2F
:1056900041D0082B41D1224B5A6802F03F025B688F
:1056A00013F4800F12D01E4B5968C1F388111D48A6
:1056B0000023A1FB0001FBF7C7FA194B5B68C3F39A
:1056C000014301335B00B0FBF3F008BD144B586895
:1056D000C0F388104FEA401CBCEB000C6EEB0E0EC2
:1056E0004FEA8E1343EA9C634FEA8C11B1EB0C0135
:1056F00063EB0E03DB0043EA5173C90011EB000CAE
:1057000043F10003990200234FEA8C2041EA9C51A7
:10571000FBF79AFAD1E70348D7E70348D5E700BF7C
:1057200000380240001BB7000024F400002800F0FD
:105730009B8070B50D4604464F4B1B6803F0070372
:105740008B4208D2CBB24C4A1370136803F00703A4
:105750008B4240F08B80236813F0020F17D013F0B8
:10576000040F04D0454A936843F4E05393602368E0
:1057700013F0080F04D0414A936843F460439360E8
:105780003E4A936823F0F003A1680B4393602368BB
:1057900013F0010F32D06368012B21D09A1E012A29
:1057A00025D9364A126812F0020F61D033498A684F
:1057B00022F0030213438B6000F0CAFC06462F4B15
:1057C0009B6803F00C036268B3EB820F16D000F005
:1057D000BFFC801B41F288339842F0D9032042E09D
:1057E000264A126812F4003FE0D101203BE0234A30
:1057F000126812F0007FD9D1012034E01E4B1B68E3
:1058000003F00703AB4207D9EAB21B4B1A701B68BF
:1058100003F00703AB422DD1236813F0040F06D029
:10582000164A936823F4E053E1680B4393602368BE
:1058300013F0080F07D0114A936823F460432169DD
:1058400043EAC1039360FFF71DFF0C4B9B68C3F352
:1058500003130B4AD35CD8400A4B18600A4B1868F4
:1058600000F02AFC002070BD012070470120FAE7FB
:105870000120F8E70120F6E7003C02400038024032
:10588000000501085000002058000020014B186856
:10589000704700BF5000002008B5FFF7F7FF044B2A
:1058A0009B68C3F38223034AD35CD84008BD00BF82
:1058B00000380240F804010808B5FFF7E7FF044B81
:1058C0009B68C3F34233034AD35CD84008BD00BF92
:1058D00000380240F804010800230F2B00F2E98091
:1058E00070B582B065E085684FEA430E032404FA80
:1058F0000EF425EA0405CC6804FA0EF42C43846007
:10590000446824EA02044A68C2F300129A4022431F
:1059100042605CE0DC08083450F8242003F00705FE
:10592000AD004FF00F0E0EFA05FE22EA0E0E0A69C8
:10593000AA4042EA0E0240F824205CE0072200E080
:10594000002202FA0EF22A4302345A4D45F824206E
:10595000594A94686FEA0C0224EA0C054E6816F462
:10596000801F01D04CEA0405534CA560E46802EAAC
:1059700004054E6816F4001F01D04CEA04054E4C95
:10598000E560646802EA04054E6816F4003F01D041
:105990004CEA0405484C6560246822404D6815F4C3
:1059A000803F01D04CEA0402434C226001330F2BAC
:1059B0007DD801229A400C6804EA020C32EA040401
:1059C000F4D14C6804F00304013C012C8BD94A68E3
:1059D00002F00302032A09D0C4685D000322AA4032
:1059E00024EA02048A68AA402243C2604A6802F09C
:1059F0000302022A8ED004684FEA430E032202FA01
:105A00000EF224EA02044A6802F0030202FA0EF2DD
:105A1000224302604A6812F4403FC7D0002201923C
:105A2000264A546C44F480445464526C02F480421C
:105A30000192019A9C08A51C1E4A52F8255003F0B9
:105A4000030E4FEA8E0E0F2202FA0EF225EA02052D
:105A50001B4A90423FF474AF02F5806290421AD024
:105A600002F58062904218D002F58062904216D012
:105A700002F58062904214D002F58062904212D00A
:105A800002F58062904210D002F5806290423FF4AD
:105A900055AF082255E7012253E7022251E70322BE
:105AA0004FE704224DE705224BE7062249E702B003
:105AB00070BD704700380140003C01400038024092
:105AC000000002400369194201D001207047002004
:105AD00070470AB18161704709048161704770475E
